{
  "_format": "hh-sol-artifact-1",
  "contractName": "Blog",
  "sourceName": "contracts/Blog.sol",
  "abi": [
    {
      "inputs": [
        {
          "internalType": "address",
          "name": "_creator",
          "type": "address"
        },
        {
          "internalType": "string",
          "name": "_blogsName",
          "type": "string"
        }
      ],
      "stateMutability": "nonpayable",
      "type": "constructor"
    },
    {
      "anonymous": false,
      "inputs": [
        {
          "indexed": false,
          "internalType": "uint256",
          "name": "id",
          "type": "uint256"
        },
        {
          "indexed": false,
          "internalType": "string",
          "name": "header",
          "type": "string"
        },
        {
          "indexed": false,
          "internalType": "string",
          "name": "content",
          "type": "string"
        },
        {
          "indexed": false,
          "internalType": "uint256",
          "name": "publishDate",
          "type": "uint256"
        },
        {
          "indexed": false,
          "internalType": "uint256",
          "name": "likeCount",
          "type": "uint256"
        },
        {
          "indexed": false,
          "internalType": "uint256",
          "name": "donatedAmount",
          "type": "uint256"
        }
      ],
      "name": "ArticleCreated",
      "type": "event"
    },
    {
      "anonymous": false,
      "inputs": [
        {
          "indexed": false,
          "internalType": "uint256",
          "name": "id",
          "type": "uint256"
        },
        {
          "indexed": false,
          "internalType": "address",
          "name": "donator",
          "type": "address"
        },
        {
          "indexed": false,
          "internalType": "uint256",
          "name": "donatedAmount",
          "type": "uint256"
        },
        {
          "indexed": false,
          "internalType": "uint256",
          "name": "totalDonatedAmount",
          "type": "uint256"
        }
      ],
      "name": "DonationMade",
      "type": "event"
    },
    {
      "anonymous": false,
      "inputs": [
        {
          "indexed": false,
          "internalType": "uint256",
          "name": "id",
          "type": "uint256"
        },
        {
          "indexed": false,
          "internalType": "address",
          "name": "liker",
          "type": "address"
        },
        {
          "indexed": false,
          "internalType": "uint256",
          "name": "likeCount",
          "type": "uint256"
        }
      ],
      "name": "Liked",
      "type": "event"
    },
    {
      "anonymous": false,
      "inputs": [
        {
          "indexed": true,
          "internalType": "address",
          "name": "previousOwner",
          "type": "address"
        },
        {
          "indexed": true,
          "internalType": "address",
          "name": "newOwner",
          "type": "address"
        }
      ],
      "name": "OwnershipTransferred",
      "type": "event"
    },
    {
      "inputs": [],
      "name": "articleCount",
      "outputs": [
        {
          "internalType": "uint256",
          "name": "",
          "type": "uint256"
        }
      ],
      "stateMutability": "view",
      "type": "function"
    },
    {
      "inputs": [
        {
          "internalType": "uint256",
          "name": "",
          "type": "uint256"
        }
      ],
      "name": "articles",
      "outputs": [
        {
          "internalType": "uint256",
          "name": "id",
          "type": "uint256"
        },
        {
          "internalType": "string",
          "name": "header",
          "type": "string"
        },
        {
          "internalType": "string",
          "name": "content",
          "type": "string"
        },
        {
          "internalType": "uint256",
          "name": "publishDate",
          "type": "uint256"
        },
        {
          "internalType": "uint256",
          "name": "likeCount",
          "type": "uint256"
        },
        {
          "internalType": "uint256",
          "name": "donatedAmount",
          "type": "uint256"
        },
        {
          "internalType": "uint256",
          "name": "donaterCount",
          "type": "uint256"
        }
      ],
      "stateMutability": "view",
      "type": "function"
    },
    {
      "inputs": [],
      "name": "blogsName",
      "outputs": [
        {
          "internalType": "string",
          "name": "",
          "type": "string"
        }
      ],
      "stateMutability": "view",
      "type": "function"
    },
    {
      "inputs": [
        {
          "internalType": "uint256",
          "name": "_articleId",
          "type": "uint256"
        }
      ],
      "name": "donateToWriter",
      "outputs": [],
      "stateMutability": "payable",
      "type": "function"
    },
    {
      "inputs": [
        {
          "internalType": "uint256",
          "name": "_id",
          "type": "uint256"
        }
      ],
      "name": "getArticlesDonatorsWithAmmount",
      "outputs": [
        {
          "components": [
            {
              "internalType": "address",
              "name": "donator",
              "type": "address"
            },
            {
              "internalType": "uint256",
              "name": "amount",
              "type": "uint256"
            }
          ],
          "internalType": "struct Blog.DonatorWithAmount[]",
          "name": "",
          "type": "tuple[]"
        }
      ],
      "stateMutability": "view",
      "type": "function"
    },
    {
      "inputs": [
        {
          "internalType": "uint256",
          "name": "_articleId",
          "type": "uint256"
        }
      ],
      "name": "likeArticle",
      "outputs": [],
      "stateMutability": "nonpayable",
      "type": "function"
    },
    {
      "inputs": [],
      "name": "owner",
      "outputs": [
        {
          "internalType": "address",
          "name": "",
          "type": "address"
        }
      ],
      "stateMutability": "view",
      "type": "function"
    },
    {
      "inputs": [
        {
          "internalType": "string",
          "name": "_header",
          "type": "string"
        },
        {
          "internalType": "string",
          "name": "_content",
          "type": "string"
        }
      ],
      "name": "publishArticle",
      "outputs": [],
      "stateMutability": "nonpayable",
      "type": "function"
    },
    {
      "inputs": [],
      "name": "receivedDonationAmount",
      "outputs": [
        {
          "internalType": "uint256",
          "name": "",
          "type": "uint256"
        }
      ],
      "stateMutability": "view",
      "type": "function"
    },
    {
      "inputs": [],
      "name": "renounceOwnership",
      "outputs": [],
      "stateMutability": "nonpayable",
      "type": "function"
    },
    {
      "inputs": [
        {
          "internalType": "address",
          "name": "newOwner",
          "type": "address"
        }
      ],
      "name": "transferOwnership",
      "outputs": [],
      "stateMutability": "nonpayable",
      "type": "function"
    },
    {
      "inputs": [
        {
          "internalType": "uint256",
          "name": "_amount",
          "type": "uint256"
        }
      ],
      "name": "withdraw",
      "outputs": [],
      "stateMutability": "nonpayable",
      "type": "function"
    }
  ],
  "bytecode": "0x60806040523480156200001157600080fd5b5060405162001deb38038062001deb8339818101604052810190620000379190620003cd565b620000576200004b6200008960201b60201c565b6200009160201b60201c565b62000068826200015560201b60201c565b80600490805190602001906200008092919062000294565b505050620006a5565b600033905090565b60008060009054906101000a900473ffffffffffffffffffffffffffffffffffffffff169050816000806101000a81548173ffffffffffffffffffffffffffffffffffffffff021916908373ffffffffffffffffffffffffffffffffffffffff1602179055508173ffffffffffffffffffffffffffffffffffffffff168173ffffffffffffffffffffffffffffffffffffffff167f8be0079c531659141344cd1fd0a4f28419497f9722a3daafe3b4186f6b6457e060405160405180910390a35050565b620001656200008960201b60201c565b73ffffffffffffffffffffffffffffffffffffffff166200018b6200026b60201b60201c565b73ffffffffffffffffffffffffffffffffffffffff1614620001e4576040517f08c379a0000000000000000000000000000000000000000000000000000000008152600401620001db90620004f3565b60405180910390fd5b600073ffffffffffffffffffffffffffffffffffffffff168173ffffffffffffffffffffffffffffffffffffffff16141562000257576040517f08c379a00000000000000000000000000000000000000000000000000000000081526004016200024e90620004d1565b60405180910390fd5b62000268816200009160201b60201c565b50565b60008060009054906101000a900473ffffffffffffffffffffffffffffffffffffffff16905090565b828054620002a290620005f7565b90600052602060002090601f016020900481019282620002c6576000855562000312565b82601f10620002e157805160ff191683800117855562000312565b8280016001018555821562000312579182015b8281111562000311578251825591602001919060010190620002f4565b5b50905062000321919062000325565b5090565b5b808211156200034057600081600090555060010162000326565b5090565b60006200035b620003558462000549565b62000515565b9050828152602081018484840111156200037457600080fd5b62000381848285620005c1565b509392505050565b6000815190506200039a816200068b565b92915050565b600082601f830112620003b257600080fd5b8151620003c484826020860162000344565b91505092915050565b60008060408385031215620003e157600080fd5b6000620003f18582860162000389565b925050602083015167ffffffffffffffff8111156200040f57600080fd5b6200041d85828601620003a0565b9150509250929050565b6000620004366026836200057c565b91507f4f776e61626c653a206e6577206f776e657220697320746865207a65726f206160008301527f64647265737300000000000000000000000000000000000000000000000000006020830152604082019050919050565b60006200049e6020836200057c565b91507f4f776e61626c653a2063616c6c6572206973206e6f7420746865206f776e65726000830152602082019050919050565b60006020820190508181036000830152620004ec8162000427565b9050919050565b600060208201905081810360008301526200050e816200048f565b9050919050565b6000604051905081810181811067ffffffffffffffff821117156200053f576200053e6200065c565b5b8060405250919050565b600067ffffffffffffffff8211156200056757620005666200065c565b5b601f19601f8301169050602081019050919050565b600082825260208201905092915050565b60006200059a82620005a1565b9050919050565b600073ffffffffffffffffffffffffffffffffffffffff82169050919050565b60005b83811015620005e1578082015181840152602081019050620005c4565b83811115620005f1576000848401525b50505050565b600060028204905060018216806200061057607f821691505b602082108114156200062757620006266200062d565b5b50919050565b7f4e487b7100000000000000000000000000000000000000000000000000000000600052602260045260246000fd5b7f4e487b7100000000000000000000000000000000000000000000000000000000600052604160045260246000fd5b62000696816200058d565b8114620006a257600080fd5b50565b61173680620006b56000396000f3fe6080604052600436106100a75760003560e01c8063715018a611610064578063715018a61461019b5780638da5cb5b146101b257806395961f05146101dd578063ba5f95ea14610206578063edcfafe614610243578063f2fde38b14610286576100a7565b806312c08f4b146100ac5780632c3d1589146100d75780632e1a7d4d146101005780633307c7c2146101295780633a38bcc814610145578063414e28b014610170575b600080fd5b3480156100b857600080fd5b506100c16102af565b6040516100ce9190611238565b60405180910390f35b3480156100e357600080fd5b506100fe60048036038101906100f99190611003565b61033d565b005b34801561010c57600080fd5b5061012760048036038101906101229190611003565b6103dc565b005b610143600480360381019061013e9190611003565b6104af565b005b34801561015157600080fd5b5061015a6104f0565b604051610167919061129a565b60405180910390f35b34801561017c57600080fd5b506101856104f6565b604051610192919061129a565b60405180910390f35b3480156101a757600080fd5b506101b06104fc565b005b3480156101be57600080fd5b506101c7610584565b6040516101d491906111fb565b60405180910390f35b3480156101e957600080fd5b5061020460048036038101906101ff9190610f97565b6105ad565b005b34801561021257600080fd5b5061022d60048036038101906102289190611003565b610637565b60405161023a9190611216565b60405180910390f35b34801561024f57600080fd5b5061026a60048036038101906102659190611003565b6107c5565b60405161027d97969594939291906113a0565b60405180910390f35b34801561029257600080fd5b506102ad60048036038101906102a89190610f6e565b610917565b005b600480546102bc906115b9565b80601f01602080910402602001604051908101604052809291908181526020018280546102e8906115b9565b80156103355780601f1061030a57610100808354040283529160200191610335565b820191906000526020600020905b81548152906001019060200180831161031857829003601f168201915b505050505081565b80600154811061034c57600080fd5b6002600083815260200190815260200160002060080160003373ffffffffffffffffffffffffffffffffffffffff1673ffffffffffffffffffffffffffffffffffffffff16815260200190815260200160002060009054906101000a900460ff16156103b757600080fd5b60006002600084815260200190815260200160002090506103d781610a0f565b505050565b6103e4610ac9565b73ffffffffffffffffffffffffffffffffffffffff16610402610584565b73ffffffffffffffffffffffffffffffffffffffff1614610458576040517f08c379a000000000000000000000000000000000000000000000000000000000815260040161044f9061127a565b60405180910390fd5b4781111561046557600080fd5b3373ffffffffffffffffffffffffffffffffffffffff166108fc479081150290604051600060405180830381858888f193505050501580156104ab573d6000803e3d6000fd5b5050565b8060015481106104be57600080fd5b600034116104cb57600080fd5b60006002600084815260200190815260200160002090506104eb81610ad1565b505050565b60035481565b60015481565b610504610ac9565b73ffffffffffffffffffffffffffffffffffffffff16610522610584565b73ffffffffffffffffffffffffffffffffffffffff1614610578576040517f08c379a000000000000000000000000000000000000000000000000000000000815260040161056f9061127a565b60405180910390fd5b6105826000610bf5565b565b60008060009054906101000a900473ffffffffffffffffffffffffffffffffffffffff16905090565b6105b5610ac9565b73ffffffffffffffffffffffffffffffffffffffff166105d3610584565b73ffffffffffffffffffffffffffffffffffffffff1614610629576040517f08c379a00000000000000000000000000000000000000000000000000000000081526004016106209061127a565b60405180910390fd5b6106338282610cb9565b5050565b6060600060026000848152602001908152602001600020905060008160060154905060008167ffffffffffffffff81111561069b577f4e487b7100000000000000000000000000000000000000000000000000000000600052604160045260246000fd5b6040519080825280602002602001820160405280156106d457816020015b6106c1610e09565b8152602001906001900390816106b95790505b50905060005b828110156107b9578360070160008281526020019081526020016000206040518060400160405290816000820160009054906101000a900473ffffffffffffffffffffffffffffffffffffffff1673ffffffffffffffffffffffffffffffffffffffff1673ffffffffffffffffffffffffffffffffffffffff16815260200160018201548152505082828151811061079b577f4e487b7100000000000000000000000000000000000000000000000000000000600052603260045260246000fd5b602002602001018190525080806107b1906115eb565b9150506106da565b50809350505050919050565b60026020528060005260406000206000915090508060000154908060010180546107ee906115b9565b80601f016020809104026020016040519081016040528092919081815260200182805461081a906115b9565b80156108675780601f1061083c57610100808354040283529160200191610867565b820191906000526020600020905b81548152906001019060200180831161084a57829003601f168201915b50505050509080600201805461087c906115b9565b80601f01602080910402602001604051908101604052809291908181526020018280546108a8906115b9565b80156108f55780601f106108ca576101008083540402835291602001916108f5565b820191906000526020600020905b8154815290600101906020018083116108d857829003601f168201915b5050505050908060030154908060040154908060050154908060060154905087565b61091f610ac9565b73ffffffffffffffffffffffffffffffffffffffff1661093d610584565b73ffffffffffffffffffffffffffffffffffffffff1614610993576040517f08c379a000000000000000000000000000000000000000000000000000000000815260040161098a9061127a565b60405180910390fd5b600073ffffffffffffffffffffffffffffffffffffffff168173ffffffffffffffffffffffffffffffffffffffff161415610a03576040517f08c379a00000000000000000000000000000000000000000000000000000000081526004016109fa9061125a565b60405180910390fd5b610a0c81610bf5565b50565b806004016000815480929190610a24906115eb565b919050555060018160080160003373ffffffffffffffffffffffffffffffffffffffff1673ffffffffffffffffffffffffffffffffffffffff16815260200190815260200160002060006101000a81548160ff0219169083151502179055507f7d5458e61bf2bf76987ce638f841daaa06b8829aae898a0eb343f41e38aa082f8160000154338360040154604051610abe939291906112b5565b60405180910390a150565b600033905090565b60405180604001604052803373ffffffffffffffffffffffffffffffffffffffff168152602001348152508160070160008360060154815260200190815260200160002060008201518160000160006101000a81548173ffffffffffffffffffffffffffffffffffffffff021916908373ffffffffffffffffffffffffffffffffffffffff16021790555060208201518160010155905050348160050154610b7991906114d3565b816005018190555034600354610b8f91906114d3565b600381905550806006016000815480929190610baa906115eb565b91905055507f8daa46fa469e04bd312abe18b38efc6deb94c058ad9ed97ae8787e2a2169a86e81600001543334600354604051610bea94939291906112ec565b60405180910390a150565b60008060009054906101000a900473ffffffffffffffffffffffffffffffffffffffff169050816000806101000a81548173ffffffffffffffffffffffffffffffffffffffff021916908373ffffffffffffffffffffffffffffffffffffffff1602179055508173ffffffffffffffffffffffffffffffffffffffff168173ffffffffffffffffffffffffffffffffffffffff167f8be0079c531659141344cd1fd0a4f28419497f9722a3daafe3b4186f6b6457e060405160405180910390a35050565b610cc1610ac9565b73ffffffffffffffffffffffffffffffffffffffff16610cdf610584565b73ffffffffffffffffffffffffffffffffffffffff1614610d35576040517f08c379a0000000000000000000000000000000000000000000000000000000008152600401610d2c9061127a565b60405180910390fd5b60006002600060015481526020019081526020016000209050600154816000018190555082816001019080519060200190610d71929190610e39565b5081816002019080519060200190610d8a929190610e39565b5042816003018190555060008160040181905550600081600501819055507fef312339197187abb2348f857f0015f1df9ecec77e017d052d22ed73f24a3ddd600154848442600080604051610de496959493929190611331565b60405180910390a160016000815480929190610dff906115eb565b9190505550505050565b6040518060400160405280600073ffffffffffffffffffffffffffffffffffffffff168152602001600081525090565b828054610e45906115b9565b90600052602060002090601f016020900481019282610e675760008555610eae565b82601f10610e8057805160ff1916838001178555610eae565b82800160010185558215610eae579182015b82811115610ead578251825591602001919060010190610e92565b5b509050610ebb9190610ebf565b5090565b5b80821115610ed8576000816000905550600101610ec0565b5090565b6000610eef610eea8461144e565b61141d565b905082815260208101848484011115610f0757600080fd5b610f12848285611577565b509392505050565b600081359050610f29816116d2565b92915050565b600082601f830112610f4057600080fd5b8135610f50848260208601610edc565b91505092915050565b600081359050610f68816116e9565b92915050565b600060208284031215610f8057600080fd5b6000610f8e84828501610f1a565b91505092915050565b60008060408385031215610faa57600080fd5b600083013567ffffffffffffffff811115610fc457600080fd5b610fd085828601610f2f565b925050602083013567ffffffffffffffff811115610fed57600080fd5b610ff985828601610f2f565b9150509250929050565b60006020828403121561101557600080fd5b600061102384828501610f59565b91505092915050565b600061103883836111ae565b60408301905092915050565b61104d81611529565b82525050565b61105c81611529565b82525050565b600061106d8261148e565b61107781856114b1565b93506110828361147e565b8060005b838110156110b357815161109a888261102c565b97506110a5836114a4565b925050600181019050611086565b5085935050505092915050565b6110c981611565565b82525050565b60006110da82611499565b6110e481856114c2565b93506110f4818560208601611586565b6110fd816116c1565b840191505092915050565b60006111156026836114c2565b91507f4f776e61626c653a206e6577206f776e657220697320746865207a65726f206160008301527f64647265737300000000000000000000000000000000000000000000000000006020830152604082019050919050565b600061117b6020836114c2565b91507f4f776e61626c653a2063616c6c6572206973206e6f7420746865206f776e65726000830152602082019050919050565b6040820160008201516111c46000850182611044565b5060208201516111d760208501826111dd565b50505050565b6111e68161155b565b82525050565b6111f58161155b565b82525050565b60006020820190506112106000830184611053565b92915050565b600060208201905081810360008301526112308184611062565b905092915050565b6000602082019050818103600083015261125281846110cf565b905092915050565b6000602082019050818103600083015261127381611108565b9050919050565b600060208201905081810360008301526112938161116e565b9050919050565b60006020820190506112af60008301846111ec565b92915050565b60006060820190506112ca60008301866111ec565b6112d76020830185611053565b6112e460408301846111ec565b949350505050565b600060808201905061130160008301876111ec565b61130e6020830186611053565b61131b60408301856111ec565b61132860608301846111ec565b95945050505050565b600060c08201905061134660008301896111ec565b818103602083015261135881886110cf565b9050818103604083015261136c81876110cf565b905061137b60608301866111ec565b61138860808301856110c0565b61139560a08301846110c0565b979650505050505050565b600060e0820190506113b5600083018a6111ec565b81810360208301526113c781896110cf565b905081810360408301526113db81886110cf565b90506113ea60608301876111ec565b6113f760808301866111ec565b61140460a08301856111ec565b61141160c08301846111ec565b98975050505050505050565b6000604051905081810181811067ffffffffffffffff8211171561144457611443611692565b5b8060405250919050565b600067ffffffffffffffff82111561146957611468611692565b5b601f19601f8301169050602081019050919050565b6000819050602082019050919050565b600081519050919050565b600081519050919050565b6000602082019050919050565b600082825260208201905092915050565b600082825260208201905092915050565b60006114de8261155b565b91506114e98361155b565b9250827fffffffffffffffffffffffffffffffffffffffffffffffffffffffffffffffff0382111561151e5761151d611634565b5b828201905092915050565b60006115348261153b565b9050919050565b600073ffffffffffffffffffffffffffffffffffffffff82169050919050565b6000819050919050565b60006115708261155b565b9050919050565b82818337600083830152505050565b60005b838110156115a4578082015181840152602081019050611589565b838111156115b3576000848401525b50505050565b600060028204905060018216806115d157607f821691505b602082108114156115e5576115e4611663565b5b50919050565b60006115f68261155b565b91507fffffffffffffffffffffffffffffffffffffffffffffffffffffffffffffffff82141561162957611628611634565b5b600182019050919050565b7f4e487b7100000000000000000000000000000000000000000000000000000000600052601160045260246000fd5b7f4e487b7100000000000000000000000000000000000000000000000000000000600052602260045260246000fd5b7f4e487b7100000000000000000000000000000000000000000000000000000000600052604160045260246000fd5b6000601f19601f8301169050919050565b6116db81611529565b81146116e657600080fd5b50565b6116f28161155b565b81146116fd57600080fd5b5056fea2646970667358221220029c9508914cb8bc1aea38e1cd965524d4b3c393137d0e13941d92f93582811664736f6c63430008000033",
  "linkReferences": {},
  "deployedLinkReferences": {}
}