{
  "_format": "hh-sol-artifact-1",
  "contractName": "Blog",
  "sourceName": "contracts/Blog.sol",
  "abi": [
    {
      "inputs": [
        {
          "internalType": "address",
          "name": "_creator",
          "type": "address"
        },
        {
          "internalType": "string",
          "name": "_blogsName",
          "type": "string"
        }
      ],
      "stateMutability": "nonpayable",
      "type": "constructor"
    },
    {
      "anonymous": false,
      "inputs": [
        {
          "indexed": false,
          "internalType": "uint256",
          "name": "id",
          "type": "uint256"
        },
        {
          "indexed": false,
          "internalType": "string",
          "name": "header",
          "type": "string"
        },
        {
          "indexed": false,
          "internalType": "string",
          "name": "content",
          "type": "string"
        },
        {
          "indexed": false,
          "internalType": "uint256",
          "name": "publishDate",
          "type": "uint256"
        },
        {
          "indexed": false,
          "internalType": "uint256",
          "name": "likeCount",
          "type": "uint256"
        },
        {
          "indexed": false,
          "internalType": "uint256",
          "name": "donatedAmount",
          "type": "uint256"
        }
      ],
      "name": "ArticleCreated",
      "type": "event"
    },
    {
      "anonymous": false,
      "inputs": [
        {
          "indexed": false,
          "internalType": "uint256",
          "name": "id",
          "type": "uint256"
        },
        {
          "indexed": false,
          "internalType": "address",
          "name": "donator",
          "type": "address"
        },
        {
          "indexed": false,
          "internalType": "uint256",
          "name": "donatedAmount",
          "type": "uint256"
        },
        {
          "indexed": false,
          "internalType": "uint256",
          "name": "totalDonatedAmount",
          "type": "uint256"
        }
      ],
      "name": "DonationMade",
      "type": "event"
    },
    {
      "anonymous": false,
      "inputs": [
        {
          "indexed": false,
          "internalType": "uint256",
          "name": "id",
          "type": "uint256"
        },
        {
          "indexed": false,
          "internalType": "address",
          "name": "liker",
          "type": "address"
        },
        {
          "indexed": false,
          "internalType": "uint256",
          "name": "likeCount",
          "type": "uint256"
        }
      ],
      "name": "Liked",
      "type": "event"
    },
    {
      "anonymous": false,
      "inputs": [
        {
          "indexed": true,
          "internalType": "address",
          "name": "previousOwner",
          "type": "address"
        },
        {
          "indexed": true,
          "internalType": "address",
          "name": "newOwner",
          "type": "address"
        }
      ],
      "name": "OwnershipTransferred",
      "type": "event"
    },
    {
      "inputs": [],
      "name": "articleCount",
      "outputs": [
        {
          "internalType": "uint256",
          "name": "",
          "type": "uint256"
        }
      ],
      "stateMutability": "view",
      "type": "function"
    },
    {
      "inputs": [
        {
          "internalType": "uint256",
          "name": "",
          "type": "uint256"
        }
      ],
      "name": "articles",
      "outputs": [
        {
          "internalType": "uint256",
          "name": "id",
          "type": "uint256"
        },
        {
          "internalType": "string",
          "name": "header",
          "type": "string"
        },
        {
          "internalType": "string",
          "name": "content",
          "type": "string"
        },
        {
          "internalType": "uint256",
          "name": "publishDate",
          "type": "uint256"
        },
        {
          "internalType": "uint256",
          "name": "likeCount",
          "type": "uint256"
        },
        {
          "internalType": "uint256",
          "name": "donatedAmount",
          "type": "uint256"
        },
        {
          "internalType": "uint256",
          "name": "donaterCount",
          "type": "uint256"
        }
      ],
      "stateMutability": "view",
      "type": "function"
    },
    {
      "inputs": [],
      "name": "blogBalance",
      "outputs": [
        {
          "internalType": "uint256",
          "name": "",
          "type": "uint256"
        }
      ],
      "stateMutability": "view",
      "type": "function"
    },
    {
      "inputs": [],
      "name": "blogsName",
      "outputs": [
        {
          "internalType": "string",
          "name": "",
          "type": "string"
        }
      ],
      "stateMutability": "view",
      "type": "function"
    },
    {
      "inputs": [
        {
          "internalType": "uint256",
          "name": "_articleId",
          "type": "uint256"
        }
      ],
      "name": "donateToWriter",
      "outputs": [],
      "stateMutability": "payable",
      "type": "function"
    },
    {
      "inputs": [
        {
          "internalType": "uint256",
          "name": "_id",
          "type": "uint256"
        }
      ],
      "name": "getArticlesDonatorsWithAmmount",
      "outputs": [
        {
          "components": [
            {
              "internalType": "address",
              "name": "donator",
              "type": "address"
            },
            {
              "internalType": "uint256",
              "name": "amount",
              "type": "uint256"
            }
          ],
          "internalType": "struct Blog.DonatorWithAmount[]",
          "name": "",
          "type": "tuple[]"
        }
      ],
      "stateMutability": "view",
      "type": "function"
    },
    {
      "inputs": [],
      "name": "getSummary",
      "outputs": [
        {
          "internalType": "string",
          "name": "",
          "type": "string"
        },
        {
          "internalType": "address",
          "name": "",
          "type": "address"
        },
        {
          "internalType": "uint256",
          "name": "",
          "type": "uint256"
        },
        {
          "internalType": "uint256",
          "name": "",
          "type": "uint256"
        },
        {
          "internalType": "uint256",
          "name": "",
          "type": "uint256"
        }
      ],
      "stateMutability": "view",
      "type": "function"
    },
    {
      "inputs": [
        {
          "internalType": "uint256",
          "name": "_id",
          "type": "uint256"
        }
      ],
      "name": "isArticleLikedByAddress",
      "outputs": [
        {
          "internalType": "bool",
          "name": "",
          "type": "bool"
        }
      ],
      "stateMutability": "view",
      "type": "function"
    },
    {
      "inputs": [
        {
          "internalType": "uint256",
          "name": "_articleId",
          "type": "uint256"
        }
      ],
      "name": "likeArticle",
      "outputs": [],
      "stateMutability": "nonpayable",
      "type": "function"
    },
    {
      "inputs": [],
      "name": "owner",
      "outputs": [
        {
          "internalType": "address",
          "name": "",
          "type": "address"
        }
      ],
      "stateMutability": "view",
      "type": "function"
    },
    {
      "inputs": [
        {
          "internalType": "string",
          "name": "_header",
          "type": "string"
        },
        {
          "internalType": "string",
          "name": "_content",
          "type": "string"
        }
      ],
      "name": "publishArticle",
      "outputs": [],
      "stateMutability": "nonpayable",
      "type": "function"
    },
    {
      "inputs": [],
      "name": "receivedDonationAmount",
      "outputs": [
        {
          "internalType": "uint256",
          "name": "",
          "type": "uint256"
        }
      ],
      "stateMutability": "view",
      "type": "function"
    },
    {
      "inputs": [],
      "name": "renounceOwnership",
      "outputs": [],
      "stateMutability": "nonpayable",
      "type": "function"
    },
    {
      "inputs": [
        {
          "internalType": "address",
          "name": "newOwner",
          "type": "address"
        }
      ],
      "name": "transferOwnership",
      "outputs": [],
      "stateMutability": "nonpayable",
      "type": "function"
    },
    {
      "inputs": [
        {
          "internalType": "uint256",
          "name": "_amount",
          "type": "uint256"
        }
      ],
      "name": "withdraw",
      "outputs": [],
      "stateMutability": "nonpayable",
      "type": "function"
    }
  ],
  "bytecode": "0x60806040523480156200001157600080fd5b506040516200209b3803806200209b8339818101604052810190620000379190620003cd565b620000576200004b6200008960201b60201c565b6200009160201b60201c565b62000068826200015560201b60201c565b80600490805190602001906200008092919062000294565b505050620006a5565b600033905090565b60008060009054906101000a900473ffffffffffffffffffffffffffffffffffffffff169050816000806101000a81548173ffffffffffffffffffffffffffffffffffffffff021916908373ffffffffffffffffffffffffffffffffffffffff1602179055508173ffffffffffffffffffffffffffffffffffffffff168173ffffffffffffffffffffffffffffffffffffffff167f8be0079c531659141344cd1fd0a4f28419497f9722a3daafe3b4186f6b6457e060405160405180910390a35050565b620001656200008960201b60201c565b73ffffffffffffffffffffffffffffffffffffffff166200018b6200026b60201b60201c565b73ffffffffffffffffffffffffffffffffffffffff1614620001e4576040517f08c379a0000000000000000000000000000000000000000000000000000000008152600401620001db90620004f3565b60405180910390fd5b600073ffffffffffffffffffffffffffffffffffffffff168173ffffffffffffffffffffffffffffffffffffffff16141562000257576040517f08c379a00000000000000000000000000000000000000000000000000000000081526004016200024e90620004d1565b60405180910390fd5b62000268816200009160201b60201c565b50565b60008060009054906101000a900473ffffffffffffffffffffffffffffffffffffffff16905090565b828054620002a290620005f7565b90600052602060002090601f016020900481019282620002c6576000855562000312565b82601f10620002e157805160ff191683800117855562000312565b8280016001018555821562000312579182015b8281111562000311578251825591602001919060010190620002f4565b5b50905062000321919062000325565b5090565b5b808211156200034057600081600090555060010162000326565b5090565b60006200035b620003558462000549565b62000515565b9050828152602081018484840111156200037457600080fd5b62000381848285620005c1565b509392505050565b6000815190506200039a816200068b565b92915050565b600082601f830112620003b257600080fd5b8151620003c484826020860162000344565b91505092915050565b60008060408385031215620003e157600080fd5b6000620003f18582860162000389565b925050602083015167ffffffffffffffff8111156200040f57600080fd5b6200041d85828601620003a0565b9150509250929050565b6000620004366026836200057c565b91507f4f776e61626c653a206e6577206f776e657220697320746865207a65726f206160008301527f64647265737300000000000000000000000000000000000000000000000000006020830152604082019050919050565b60006200049e6020836200057c565b91507f4f776e61626c653a2063616c6c6572206973206e6f7420746865206f776e65726000830152602082019050919050565b60006020820190508181036000830152620004ec8162000427565b9050919050565b600060208201905081810360008301526200050e816200048f565b9050919050565b6000604051905081810181811067ffffffffffffffff821117156200053f576200053e6200065c565b5b8060405250919050565b600067ffffffffffffffff8211156200056757620005666200065c565b5b601f19601f8301169050602081019050919050565b600082825260208201905092915050565b60006200059a82620005a1565b9050919050565b600073ffffffffffffffffffffffffffffffffffffffff82169050919050565b60005b83811015620005e1578082015181840152602081019050620005c4565b83811115620005f1576000848401525b50505050565b600060028204905060018216806200061057607f821691505b602082108114156200062757620006266200062d565b5b50919050565b7f4e487b7100000000000000000000000000000000000000000000000000000000600052602260045260246000fd5b7f4e487b7100000000000000000000000000000000000000000000000000000000600052604160045260246000fd5b62000696816200058d565b8114620006a257600080fd5b50565b6119e680620006b56000396000f3fe6080604052600436106100e85760003560e01c8063715018a61161008a578063e065b75211610059578063e065b752146102b3578063e477af51146102f0578063edcfafe61461031b578063f2fde38b1461035e576100e8565b8063715018a61461020b5780638da5cb5b1461022257806395961f051461024d578063ba5f95ea14610276576100e8565b80633307c7c2116100c65780633307c7c21461016a5780633a38bcc8146101865780634051ddac146101b1578063414e28b0146101e0576100e8565b806312c08f4b146100ed5780632c3d1589146101185780632e1a7d4d14610141575b600080fd5b3480156100f957600080fd5b50610102610387565b60405161010f9190611482565b60405180910390f35b34801561012457600080fd5b5061013f600480360381019061013a9190611223565b610415565b005b34801561014d57600080fd5b5061016860048036038101906101639190611223565b6104b4565b005b610184600480360381019061017f9190611223565b610587565b005b34801561019257600080fd5b5061019b6105c8565b6040516101a8919061153e565b60405180910390f35b3480156101bd57600080fd5b506101c66105ce565b6040516101d79594939291906114a4565b60405180910390f35b3480156101ec57600080fd5b506101f5610684565b604051610202919061153e565b60405180910390f35b34801561021757600080fd5b5061022061068a565b005b34801561022e57600080fd5b50610237610712565b604051610244919061142a565b60405180910390f35b34801561025957600080fd5b50610274600480360381019061026f91906111b7565b61073b565b005b34801561028257600080fd5b5061029d60048036038101906102989190611223565b6107c5565b6040516102aa9190611445565b60405180910390f35b3480156102bf57600080fd5b506102da60048036038101906102d59190611223565b610963565b6040516102e79190611467565b60405180910390f35b3480156102fc57600080fd5b506103056109dd565b604051610312919061153e565b60405180910390f35b34801561032757600080fd5b50610342600480360381019061033d9190611223565b6109e5565b6040516103559796959493929190611644565b60405180910390f35b34801561036a57600080fd5b506103856004803603810190610380919061118e565b610b37565b005b6004805461039490611869565b80601f01602080910402602001604051908101604052809291908181526020018280546103c090611869565b801561040d5780601f106103e25761010080835404028352916020019161040d565b820191906000526020600020905b8154815290600101906020018083116103f057829003601f168201915b505050505081565b80600154811061042457600080fd5b6002600083815260200190815260200160002060080160003373ffffffffffffffffffffffffffffffffffffffff1673ffffffffffffffffffffffffffffffffffffffff16815260200190815260200160002060009054906101000a900460ff161561048f57600080fd5b60006002600084815260200190815260200160002090506104af81610c2f565b505050565b6104bc610ce9565b73ffffffffffffffffffffffffffffffffffffffff166104da610712565b73ffffffffffffffffffffffffffffffffffffffff1614610530576040517f08c379a00000000000000000000000000000000000000000000000000000000081526004016105279061151e565b60405180910390fd5b4781111561053d57600080fd5b3373ffffffffffffffffffffffffffffffffffffffff166108fc829081150290604051600060405180830381858888f19350505050158015610583573d6000803e3d6000fd5b5050565b80600154811061059657600080fd5b600034116105a357600080fd5b60006002600084815260200190815260200160002090506105c381610cf1565b505050565b60035481565b606060008060008060046105e0610712565b600154600354478480546105f390611869565b80601f016020809104026020016040519081016040528092919081815260200182805461061f90611869565b801561066c5780601f106106415761010080835404028352916020019161066c565b820191906000526020600020905b81548152906001019060200180831161064f57829003601f168201915b50505050509450945094509450945094509091929394565b60015481565b610692610ce9565b73ffffffffffffffffffffffffffffffffffffffff166106b0610712565b73ffffffffffffffffffffffffffffffffffffffff1614610706576040517f08c379a00000000000000000000000000000000000000000000000000000000081526004016106fd9061151e565b60405180910390fd5b6107106000610e15565b565b60008060009054906101000a900473ffffffffffffffffffffffffffffffffffffffff16905090565b610743610ce9565b73ffffffffffffffffffffffffffffffffffffffff16610761610712565b73ffffffffffffffffffffffffffffffffffffffff16146107b7576040517f08c379a00000000000000000000000000000000000000000000000000000000081526004016107ae9061151e565b60405180910390fd5b6107c18282610ed9565b5050565b60608160015481106107d657600080fd5b600060026000858152602001908152602001600020905060008160060154905060008167ffffffffffffffff811115610838577f4e487b7100000000000000000000000000000000000000000000000000000000600052604160045260246000fd5b60405190808252806020026020018201604052801561087157816020015b61085e611029565b8152602001906001900390816108565790505b50905060005b82811015610956578360070160008281526020019081526020016000206040518060400160405290816000820160009054906101000a900473ffffffffffffffffffffffffffffffffffffffff1673ffffffffffffffffffffffffffffffffffffffff1673ffffffffffffffffffffffffffffffffffffffff168152602001600182015481525050828281518110610938577f4e487b7100000000000000000000000000000000000000000000000000000000600052603260045260246000fd5b6020026020010181905250808061094e9061189b565b915050610877565b5080945050505050919050565b600081600154811061097457600080fd5b6002600084815260200190815260200160002060080160003373ffffffffffffffffffffffffffffffffffffffff1673ffffffffffffffffffffffffffffffffffffffff16815260200190815260200160002060009054906101000a900460ff16915050919050565b600047905090565b6002602052806000526040600020600091509050806000015490806001018054610a0e90611869565b80601f0160208091040260200160405190810160405280929190818152602001828054610a3a90611869565b8015610a875780601f10610a5c57610100808354040283529160200191610a87565b820191906000526020600020905b815481529060010190602001808311610a6a57829003601f168201915b505050505090806002018054610a9c90611869565b80601f0160208091040260200160405190810160405280929190818152602001828054610ac890611869565b8015610b155780601f10610aea57610100808354040283529160200191610b15565b820191906000526020600020905b815481529060010190602001808311610af857829003601f168201915b5050505050908060030154908060040154908060050154908060060154905087565b610b3f610ce9565b73ffffffffffffffffffffffffffffffffffffffff16610b5d610712565b73ffffffffffffffffffffffffffffffffffffffff1614610bb3576040517f08c379a0000000000000000000000000000000000000000000000000000000008152600401610baa9061151e565b60405180910390fd5b600073ffffffffffffffffffffffffffffffffffffffff168173ffffffffffffffffffffffffffffffffffffffff161415610c23576040517f08c379a0000000000000000000000000000000000000000000000000000000008152600401610c1a906114fe565b60405180910390fd5b610c2c81610e15565b50565b806004016000815480929190610c449061189b565b919050555060018160080160003373ffffffffffffffffffffffffffffffffffffffff1673ffffffffffffffffffffffffffffffffffffffff16815260200190815260200160002060006101000a81548160ff0219169083151502179055507f7d5458e61bf2bf76987ce638f841daaa06b8829aae898a0eb343f41e38aa082f8160000154338360040154604051610cde93929190611559565b60405180910390a150565b600033905090565b60405180604001604052803373ffffffffffffffffffffffffffffffffffffffff168152602001348152508160070160008360060154815260200190815260200160002060008201518160000160006101000a81548173ffffffffffffffffffffffffffffffffffffffff021916908373ffffffffffffffffffffffffffffffffffffffff16021790555060208201518160010155905050348160050154610d999190611777565b816005018190555034600354610daf9190611777565b600381905550806006016000815480929190610dca9061189b565b91905055507f8daa46fa469e04bd312abe18b38efc6deb94c058ad9ed97ae8787e2a2169a86e81600001543334600354604051610e0a9493929190611590565b60405180910390a150565b60008060009054906101000a900473ffffffffffffffffffffffffffffffffffffffff169050816000806101000a81548173ffffffffffffffffffffffffffffffffffffffff021916908373ffffffffffffffffffffffffffffffffffffffff1602179055508173ffffffffffffffffffffffffffffffffffffffff168173ffffffffffffffffffffffffffffffffffffffff167f8be0079c531659141344cd1fd0a4f28419497f9722a3daafe3b4186f6b6457e060405160405180910390a35050565b610ee1610ce9565b73ffffffffffffffffffffffffffffffffffffffff16610eff610712565b73ffffffffffffffffffffffffffffffffffffffff1614610f55576040517f08c379a0000000000000000000000000000000000000000000000000000000008152600401610f4c9061151e565b60405180910390fd5b60006002600060015481526020019081526020016000209050600154816000018190555082816001019080519060200190610f91929190611059565b5081816002019080519060200190610faa929190611059565b5042816003018190555060008160040181905550600081600501819055507fef312339197187abb2348f857f0015f1df9ecec77e017d052d22ed73f24a3ddd600154848442600080604051611004969594939291906115d5565b60405180910390a16001600081548092919061101f9061189b565b9190505550505050565b6040518060400160405280600073ffffffffffffffffffffffffffffffffffffffff168152602001600081525090565b82805461106590611869565b90600052602060002090601f01602090048101928261108757600085556110ce565b82601f106110a057805160ff19168380011785556110ce565b828001600101855582156110ce579182015b828111156110cd5782518255916020019190600101906110b2565b5b5090506110db91906110df565b5090565b5b808211156110f85760008160009055506001016110e0565b5090565b600061110f61110a846116f2565b6116c1565b90508281526020810184848401111561112757600080fd5b611132848285611827565b509392505050565b60008135905061114981611982565b92915050565b600082601f83011261116057600080fd5b81356111708482602086016110fc565b91505092915050565b60008135905061118881611999565b92915050565b6000602082840312156111a057600080fd5b60006111ae8482850161113a565b91505092915050565b600080604083850312156111ca57600080fd5b600083013567ffffffffffffffff8111156111e457600080fd5b6111f08582860161114f565b925050602083013567ffffffffffffffff81111561120d57600080fd5b6112198582860161114f565b9150509250929050565b60006020828403121561123557600080fd5b600061124384828501611179565b91505092915050565b600061125883836113dd565b60408301905092915050565b61126d816117cd565b82525050565b61127c816117cd565b82525050565b600061128d82611732565b6112978185611755565b93506112a283611722565b8060005b838110156112d35781516112ba888261124c565b97506112c583611748565b9250506001810190506112a6565b5085935050505092915050565b6112e9816117df565b82525050565b6112f881611815565b82525050565b60006113098261173d565b6113138185611766565b9350611323818560208601611836565b61132c81611971565b840191505092915050565b6000611344602683611766565b91507f4f776e61626c653a206e6577206f776e657220697320746865207a65726f206160008301527f64647265737300000000000000000000000000000000000000000000000000006020830152604082019050919050565b60006113aa602083611766565b91507f4f776e61626c653a2063616c6c6572206973206e6f7420746865206f776e65726000830152602082019050919050565b6040820160008201516113f36000850182611264565b506020820151611406602085018261140c565b50505050565b6114158161180b565b82525050565b6114248161180b565b82525050565b600060208201905061143f6000830184611273565b92915050565b6000602082019050818103600083015261145f8184611282565b905092915050565b600060208201905061147c60008301846112e0565b92915050565b6000602082019050818103600083015261149c81846112fe565b905092915050565b600060a08201905081810360008301526114be81886112fe565b90506114cd6020830187611273565b6114da604083018661141b565b6114e7606083018561141b565b6114f4608083018461141b565b9695505050505050565b6000602082019050818103600083015261151781611337565b9050919050565b600060208201905081810360008301526115378161139d565b9050919050565b6000602082019050611553600083018461141b565b92915050565b600060608201905061156e600083018661141b565b61157b6020830185611273565b611588604083018461141b565b949350505050565b60006080820190506115a5600083018761141b565b6115b26020830186611273565b6115bf604083018561141b565b6115cc606083018461141b565b95945050505050565b600060c0820190506115ea600083018961141b565b81810360208301526115fc81886112fe565b9050818103604083015261161081876112fe565b905061161f606083018661141b565b61162c60808301856112ef565b61163960a08301846112ef565b979650505050505050565b600060e082019050611659600083018a61141b565b818103602083015261166b81896112fe565b9050818103604083015261167f81886112fe565b905061168e606083018761141b565b61169b608083018661141b565b6116a860a083018561141b565b6116b560c083018461141b565b98975050505050505050565b6000604051905081810181811067ffffffffffffffff821117156116e8576116e7611942565b5b8060405250919050565b600067ffffffffffffffff82111561170d5761170c611942565b5b601f19601f8301169050602081019050919050565b6000819050602082019050919050565b600081519050919050565b600081519050919050565b6000602082019050919050565b600082825260208201905092915050565b600082825260208201905092915050565b60006117828261180b565b915061178d8361180b565b9250827fffffffffffffffffffffffffffffffffffffffffffffffffffffffffffffffff038211156117c2576117c16118e4565b5b828201905092915050565b60006117d8826117eb565b9050919050565b60008115159050919050565b600073ffffffffffffffffffffffffffffffffffffffff82169050919050565b6000819050919050565b60006118208261180b565b9050919050565b82818337600083830152505050565b60005b83811015611854578082015181840152602081019050611839565b83811115611863576000848401525b50505050565b6000600282049050600182168061188157607f821691505b6020821081141561189557611894611913565b5b50919050565b60006118a68261180b565b91507fffffffffffffffffffffffffffffffffffffffffffffffffffffffffffffffff8214156118d9576118d86118e4565b5b600182019050919050565b7f4e487b7100000000000000000000000000000000000000000000000000000000600052601160045260246000fd5b7f4e487b7100000000000000000000000000000000000000000000000000000000600052602260045260246000fd5b7f4e487b7100000000000000000000000000000000000000000000000000000000600052604160045260246000fd5b6000601f19601f8301169050919050565b61198b816117cd565b811461199657600080fd5b50565b6119a28161180b565b81146119ad57600080fd5b5056fea2646970667358221220f085f1224594d9573f60674540eb588769152c90696c4a42af39038ec5b208e464736f6c63430008000033",
  "linkReferences": {},
  "deployedLinkReferences": {}
}