{
  "_format": "hh-sol-artifact-1",
  "contractName": "Blog",
  "sourceName": "contracts/Blog.sol",
  "abi": [
    {
      "anonymous": false,
      "inputs": [
        {
          "indexed": false,
          "internalType": "uint256",
          "name": "id",
          "type": "uint256"
        },
        {
          "indexed": false,
          "internalType": "string",
          "name": "header",
          "type": "string"
        },
        {
          "indexed": false,
          "internalType": "string",
          "name": "content",
          "type": "string"
        },
        {
          "indexed": false,
          "internalType": "uint256",
          "name": "publishDate",
          "type": "uint256"
        },
        {
          "indexed": false,
          "internalType": "uint256",
          "name": "likeCount",
          "type": "uint256"
        },
        {
          "indexed": false,
          "internalType": "uint256",
          "name": "donatedAmount",
          "type": "uint256"
        }
      ],
      "name": "ArticleCreated",
      "type": "event"
    },
    {
      "anonymous": false,
      "inputs": [
        {
          "indexed": false,
          "internalType": "uint256",
          "name": "id",
          "type": "uint256"
        },
        {
          "indexed": false,
          "internalType": "address",
          "name": "donator",
          "type": "address"
        },
        {
          "indexed": false,
          "internalType": "uint256",
          "name": "donatedAmount",
          "type": "uint256"
        },
        {
          "indexed": false,
          "internalType": "uint256",
          "name": "totalDonatedAmount",
          "type": "uint256"
        }
      ],
      "name": "DonationMade",
      "type": "event"
    },
    {
      "anonymous": false,
      "inputs": [
        {
          "indexed": false,
          "internalType": "uint256",
          "name": "id",
          "type": "uint256"
        },
        {
          "indexed": false,
          "internalType": "address",
          "name": "liker",
          "type": "address"
        },
        {
          "indexed": false,
          "internalType": "uint256",
          "name": "likeCount",
          "type": "uint256"
        }
      ],
      "name": "Liked",
      "type": "event"
    },
    {
      "anonymous": false,
      "inputs": [
        {
          "indexed": true,
          "internalType": "address",
          "name": "previousOwner",
          "type": "address"
        },
        {
          "indexed": true,
          "internalType": "address",
          "name": "newOwner",
          "type": "address"
        }
      ],
      "name": "OwnershipTransferred",
      "type": "event"
    },
    {
      "inputs": [],
      "name": "articleCount",
      "outputs": [
        {
          "internalType": "uint256",
          "name": "",
          "type": "uint256"
        }
      ],
      "stateMutability": "view",
      "type": "function"
    },
    {
      "inputs": [
        {
          "internalType": "uint256",
          "name": "",
          "type": "uint256"
        }
      ],
      "name": "articles",
      "outputs": [
        {
          "internalType": "uint256",
          "name": "id",
          "type": "uint256"
        },
        {
          "internalType": "string",
          "name": "header",
          "type": "string"
        },
        {
          "internalType": "string",
          "name": "content",
          "type": "string"
        },
        {
          "internalType": "uint256",
          "name": "publishDate",
          "type": "uint256"
        },
        {
          "internalType": "uint256",
          "name": "likeCount",
          "type": "uint256"
        },
        {
          "internalType": "uint256",
          "name": "donatedAmount",
          "type": "uint256"
        }
      ],
      "stateMutability": "view",
      "type": "function"
    },
    {
      "inputs": [
        {
          "internalType": "uint256",
          "name": "_articleId",
          "type": "uint256"
        }
      ],
      "name": "donateToWriter",
      "outputs": [],
      "stateMutability": "payable",
      "type": "function"
    },
    {
      "inputs": [
        {
          "internalType": "uint256",
          "name": "_articleId",
          "type": "uint256"
        }
      ],
      "name": "likeArticle",
      "outputs": [],
      "stateMutability": "nonpayable",
      "type": "function"
    },
    {
      "inputs": [],
      "name": "owner",
      "outputs": [
        {
          "internalType": "address",
          "name": "",
          "type": "address"
        }
      ],
      "stateMutability": "view",
      "type": "function"
    },
    {
      "inputs": [
        {
          "internalType": "string",
          "name": "_header",
          "type": "string"
        },
        {
          "internalType": "string",
          "name": "_content",
          "type": "string"
        }
      ],
      "name": "publishArticle",
      "outputs": [],
      "stateMutability": "nonpayable",
      "type": "function"
    },
    {
      "inputs": [],
      "name": "receivedDonationAmount",
      "outputs": [
        {
          "internalType": "uint256",
          "name": "",
          "type": "uint256"
        }
      ],
      "stateMutability": "view",
      "type": "function"
    },
    {
      "inputs": [],
      "name": "renounceOwnership",
      "outputs": [],
      "stateMutability": "nonpayable",
      "type": "function"
    },
    {
      "inputs": [
        {
          "internalType": "address",
          "name": "newOwner",
          "type": "address"
        }
      ],
      "name": "transferOwnership",
      "outputs": [],
      "stateMutability": "nonpayable",
      "type": "function"
    }
  ],
  "bytecode": "0x608060405234801561001057600080fd5b5061002d61002261003260201b60201c565b61003a60201b60201c565b6100fe565b600033905090565b60008060009054906101000a900473ffffffffffffffffffffffffffffffffffffffff169050816000806101000a81548173ffffffffffffffffffffffffffffffffffffffff021916908373ffffffffffffffffffffffffffffffffffffffff1602179055508173ffffffffffffffffffffffffffffffffffffffff168173ffffffffffffffffffffffffffffffffffffffff167f8be0079c531659141344cd1fd0a4f28419497f9722a3daafe3b4186f6b6457e060405160405180910390a35050565b6111188061010d6000396000f3fe6080604052600436106100865760003560e01c8063715018a611610059578063715018a6146101265780638da5cb5b1461013d57806395961f0514610168578063edcfafe614610191578063f2fde38b146101d357610086565b80632c3d15891461008b5780633307c7c2146100b45780633a38bcc8146100d0578063414e28b0146100fb575b600080fd5b34801561009757600080fd5b506100b260048036038101906100ad9190610bc3565b6101fc565b005b6100ce60048036038101906100c99190610bc3565b61029b565b005b3480156100dc57600080fd5b506100e56102dc565b6040516100f29190610d44565b60405180910390f35b34801561010757600080fd5b506101106102e2565b60405161011d9190610d44565b60405180910390f35b34801561013257600080fd5b5061013b6102e8565b005b34801561014957600080fd5b50610152610370565b60405161015f9190610ce9565b60405180910390f35b34801561017457600080fd5b5061018f600480360381019061018a9190610b57565b610399565b005b34801561019d57600080fd5b506101b860048036038101906101b39190610bc3565b610427565b6040516101ca96959493929190610ddb565b60405180910390f35b3480156101df57600080fd5b506101fa60048036038101906101f59190610b2e565b610573565b005b80600154811061020b57600080fd5b6002600083815260200190815260200160002060060160003373ffffffffffffffffffffffffffffffffffffffff1673ffffffffffffffffffffffffffffffffffffffff16815260200190815260200160002060009054906101000a900460ff161561027657600080fd5b60006002600084815260200190815260200160002090506102968161066b565b505050565b8060015481106102aa57600080fd5b600034116102b757600080fd5b60006002600084815260200190815260200160002090506102d781610725565b505050565b60035481565b60015481565b6102f06107dd565b73ffffffffffffffffffffffffffffffffffffffff1661030e610370565b73ffffffffffffffffffffffffffffffffffffffff1614610364576040517f08c379a000000000000000000000000000000000000000000000000000000000815260040161035b90610d24565b60405180910390fd5b61036e60006107e5565b565b60008060009054906101000a900473ffffffffffffffffffffffffffffffffffffffff16905090565b6103a16107dd565b73ffffffffffffffffffffffffffffffffffffffff166103bf610370565b73ffffffffffffffffffffffffffffffffffffffff1614610415576040517f08c379a000000000000000000000000000000000000000000000000000000000815260040161040c90610d24565b60405180910390fd5b6104238282426000806108a9565b5050565b600260205280600052604060002060009150905080600001549080600101805461045090610f9b565b80601f016020809104026020016040519081016040528092919081815260200182805461047c90610f9b565b80156104c95780601f1061049e576101008083540402835291602001916104c9565b820191906000526020600020905b8154815290600101906020018083116104ac57829003601f168201915b5050505050908060020180546104de90610f9b565b80601f016020809104026020016040519081016040528092919081815260200182805461050a90610f9b565b80156105575780601f1061052c57610100808354040283529160200191610557565b820191906000526020600020905b81548152906001019060200180831161053a57829003601f168201915b5050505050908060030154908060040154908060050154905086565b61057b6107dd565b73ffffffffffffffffffffffffffffffffffffffff16610599610370565b73ffffffffffffffffffffffffffffffffffffffff16146105ef576040517f08c379a00000000000000000000000000000000000000000000000000000000081526004016105e690610d24565b60405180910390fd5b600073ffffffffffffffffffffffffffffffffffffffff168173ffffffffffffffffffffffffffffffffffffffff16141561065f576040517f08c379a000000000000000000000000000000000000000000000000000000000815260040161065690610d04565b60405180910390fd5b610668816107e5565b50565b80600401600081548092919061068090610fcd565b919050555060018160060160003373ffffffffffffffffffffffffffffffffffffffff1673ffffffffffffffffffffffffffffffffffffffff16815260200190815260200160002060006101000a81548160ff0219169083151502179055507f7d5458e61bf2bf76987ce638f841daaa06b8829aae898a0eb343f41e38aa082f816000015433836004015460405161071a93929190610d5f565b60405180910390a150565b3481600501546107359190610ec7565b8160050181905550348160070160003373ffffffffffffffffffffffffffffffffffffffff1673ffffffffffffffffffffffffffffffffffffffff16815260200190815260200160002081905550346003546107919190610ec7565b6003819055507f8daa46fa469e04bd312abe18b38efc6deb94c058ad9ed97ae8787e2a2169a86e816000015433346003546040516107d29493929190610d96565b60405180910390a150565b600033905090565b60008060009054906101000a900473ffffffffffffffffffffffffffffffffffffffff169050816000806101000a81548173ffffffffffffffffffffffffffffffffffffffff021916908373ffffffffffffffffffffffffffffffffffffffff1602179055508173ffffffffffffffffffffffffffffffffffffffff168173ffffffffffffffffffffffffffffffffffffffff167f8be0079c531659141344cd1fd0a4f28419497f9722a3daafe3b4186f6b6457e060405160405180910390a35050565b6108b16107dd565b73ffffffffffffffffffffffffffffffffffffffff166108cf610370565b73ffffffffffffffffffffffffffffffffffffffff1614610925576040517f08c379a000000000000000000000000000000000000000000000000000000000815260040161091c90610d24565b60405180910390fd5b600060026000600154815260200190815260200160002090506001548160000181905550858160010190805190602001906109619291906109f9565b508481600201908051906020019061097a9291906109f9565b508381600301819055508281600401819055508181600501819055507fef312339197187abb2348f857f0015f1df9ecec77e017d052d22ed73f24a3ddd60015487878787876040516109d196959493929190610ddb565b60405180910390a1600160008154809291906109ec90610fcd565b9190505550505050505050565b828054610a0590610f9b565b90600052602060002090601f016020900481019282610a275760008555610a6e565b82601f10610a4057805160ff1916838001178555610a6e565b82800160010185558215610a6e579182015b82811115610a6d578251825591602001919060010190610a52565b5b509050610a7b9190610a7f565b5090565b5b80821115610a98576000816000905550600101610a80565b5090565b6000610aaf610aaa84610e7b565b610e4a565b905082815260208101848484011115610ac757600080fd5b610ad2848285610f59565b509392505050565b600081359050610ae9816110b4565b92915050565b600082601f830112610b0057600080fd5b8135610b10848260208601610a9c565b91505092915050565b600081359050610b28816110cb565b92915050565b600060208284031215610b4057600080fd5b6000610b4e84828501610ada565b91505092915050565b60008060408385031215610b6a57600080fd5b600083013567ffffffffffffffff811115610b8457600080fd5b610b9085828601610aef565b925050602083013567ffffffffffffffff811115610bad57600080fd5b610bb985828601610aef565b9150509250929050565b600060208284031215610bd557600080fd5b6000610be384828501610b19565b91505092915050565b610bf581610f1d565b82525050565b6000610c0682610eab565b610c108185610eb6565b9350610c20818560208601610f68565b610c29816110a3565b840191505092915050565b6000610c41602683610eb6565b91507f4f776e61626c653a206e6577206f776e657220697320746865207a65726f206160008301527f64647265737300000000000000000000000000000000000000000000000000006020830152604082019050919050565b6000610ca7602083610eb6565b91507f4f776e61626c653a2063616c6c6572206973206e6f7420746865206f776e65726000830152602082019050919050565b610ce381610f4f565b82525050565b6000602082019050610cfe6000830184610bec565b92915050565b60006020820190508181036000830152610d1d81610c34565b9050919050565b60006020820190508181036000830152610d3d81610c9a565b9050919050565b6000602082019050610d596000830184610cda565b92915050565b6000606082019050610d746000830186610cda565b610d816020830185610bec565b610d8e6040830184610cda565b949350505050565b6000608082019050610dab6000830187610cda565b610db86020830186610bec565b610dc56040830185610cda565b610dd26060830184610cda565b95945050505050565b600060c082019050610df06000830189610cda565b8181036020830152610e028188610bfb565b90508181036040830152610e168187610bfb565b9050610e256060830186610cda565b610e326080830185610cda565b610e3f60a0830184610cda565b979650505050505050565b6000604051905081810181811067ffffffffffffffff82111715610e7157610e70611074565b5b8060405250919050565b600067ffffffffffffffff821115610e9657610e95611074565b5b601f19601f8301169050602081019050919050565b600081519050919050565b600082825260208201905092915050565b6000610ed282610f4f565b9150610edd83610f4f565b9250827fffffffffffffffffffffffffffffffffffffffffffffffffffffffffffffffff03821115610f1257610f11611016565b5b828201905092915050565b6000610f2882610f2f565b9050919050565b600073ffffffffffffffffffffffffffffffffffffffff82169050919050565b6000819050919050565b82818337600083830152505050565b60005b83811015610f86578082015181840152602081019050610f6b565b83811115610f95576000848401525b50505050565b60006002820490506001821680610fb357607f821691505b60208210811415610fc757610fc6611045565b5b50919050565b6000610fd882610f4f565b91507fffffffffffffffffffffffffffffffffffffffffffffffffffffffffffffffff82141561100b5761100a611016565b5b600182019050919050565b7f4e487b7100000000000000000000000000000000000000000000000000000000600052601160045260246000fd5b7f4e487b7100000000000000000000000000000000000000000000000000000000600052602260045260246000fd5b7f4e487b7100000000000000000000000000000000000000000000000000000000600052604160045260246000fd5b6000601f19601f8301169050919050565b6110bd81610f1d565b81146110c857600080fd5b50565b6110d481610f4f565b81146110df57600080fd5b5056fea2646970667358221220bbdb2f3d78a83e8733218e63f8d1767b4fb358ff550ed35e0914ac1af072323c64736f6c63430008000033",
  "linkReferences": {},
  "deployedLinkReferences": {}
}