{
  "_format": "hh-sol-artifact-1",
  "contractName": "Blog",
  "sourceName": "contracts/Blog.sol",
  "abi": [
    {
      "inputs": [
        {
          "internalType": "address",
          "name": "creator",
          "type": "address"
        }
      ],
      "stateMutability": "nonpayable",
      "type": "constructor"
    },
    {
      "anonymous": false,
      "inputs": [
        {
          "indexed": false,
          "internalType": "uint256",
          "name": "id",
          "type": "uint256"
        },
        {
          "indexed": false,
          "internalType": "string",
          "name": "header",
          "type": "string"
        },
        {
          "indexed": false,
          "internalType": "string",
          "name": "content",
          "type": "string"
        },
        {
          "indexed": false,
          "internalType": "uint256",
          "name": "publishDate",
          "type": "uint256"
        },
        {
          "indexed": false,
          "internalType": "uint256",
          "name": "likeCount",
          "type": "uint256"
        },
        {
          "indexed": false,
          "internalType": "uint256",
          "name": "donatedAmount",
          "type": "uint256"
        }
      ],
      "name": "ArticleCreated",
      "type": "event"
    },
    {
      "anonymous": false,
      "inputs": [
        {
          "indexed": false,
          "internalType": "uint256",
          "name": "id",
          "type": "uint256"
        },
        {
          "indexed": false,
          "internalType": "address",
          "name": "donator",
          "type": "address"
        },
        {
          "indexed": false,
          "internalType": "uint256",
          "name": "donatedAmount",
          "type": "uint256"
        },
        {
          "indexed": false,
          "internalType": "uint256",
          "name": "totalDonatedAmount",
          "type": "uint256"
        }
      ],
      "name": "DonationMade",
      "type": "event"
    },
    {
      "anonymous": false,
      "inputs": [
        {
          "indexed": false,
          "internalType": "uint256",
          "name": "id",
          "type": "uint256"
        },
        {
          "indexed": false,
          "internalType": "address",
          "name": "liker",
          "type": "address"
        },
        {
          "indexed": false,
          "internalType": "uint256",
          "name": "likeCount",
          "type": "uint256"
        }
      ],
      "name": "Liked",
      "type": "event"
    },
    {
      "anonymous": false,
      "inputs": [
        {
          "indexed": true,
          "internalType": "address",
          "name": "previousOwner",
          "type": "address"
        },
        {
          "indexed": true,
          "internalType": "address",
          "name": "newOwner",
          "type": "address"
        }
      ],
      "name": "OwnershipTransferred",
      "type": "event"
    },
    {
      "inputs": [],
      "name": "articleCount",
      "outputs": [
        {
          "internalType": "uint256",
          "name": "",
          "type": "uint256"
        }
      ],
      "stateMutability": "view",
      "type": "function"
    },
    {
      "inputs": [
        {
          "internalType": "uint256",
          "name": "",
          "type": "uint256"
        }
      ],
      "name": "articles",
      "outputs": [
        {
          "internalType": "uint256",
          "name": "id",
          "type": "uint256"
        },
        {
          "internalType": "string",
          "name": "header",
          "type": "string"
        },
        {
          "internalType": "string",
          "name": "content",
          "type": "string"
        },
        {
          "internalType": "uint256",
          "name": "publishDate",
          "type": "uint256"
        },
        {
          "internalType": "uint256",
          "name": "likeCount",
          "type": "uint256"
        },
        {
          "internalType": "uint256",
          "name": "donatedAmount",
          "type": "uint256"
        }
      ],
      "stateMutability": "view",
      "type": "function"
    },
    {
      "inputs": [
        {
          "internalType": "uint256",
          "name": "_articleId",
          "type": "uint256"
        }
      ],
      "name": "donateToWriter",
      "outputs": [],
      "stateMutability": "payable",
      "type": "function"
    },
    {
      "inputs": [
        {
          "internalType": "uint256",
          "name": "_articleId",
          "type": "uint256"
        }
      ],
      "name": "likeArticle",
      "outputs": [],
      "stateMutability": "nonpayable",
      "type": "function"
    },
    {
      "inputs": [],
      "name": "owner",
      "outputs": [
        {
          "internalType": "address",
          "name": "",
          "type": "address"
        }
      ],
      "stateMutability": "view",
      "type": "function"
    },
    {
      "inputs": [
        {
          "internalType": "string",
          "name": "_header",
          "type": "string"
        },
        {
          "internalType": "string",
          "name": "_content",
          "type": "string"
        }
      ],
      "name": "publishArticle",
      "outputs": [],
      "stateMutability": "nonpayable",
      "type": "function"
    },
    {
      "inputs": [],
      "name": "receivedDonationAmount",
      "outputs": [
        {
          "internalType": "uint256",
          "name": "",
          "type": "uint256"
        }
      ],
      "stateMutability": "view",
      "type": "function"
    },
    {
      "inputs": [],
      "name": "renounceOwnership",
      "outputs": [],
      "stateMutability": "nonpayable",
      "type": "function"
    },
    {
      "inputs": [
        {
          "internalType": "address",
          "name": "newOwner",
          "type": "address"
        }
      ],
      "name": "transferOwnership",
      "outputs": [],
      "stateMutability": "nonpayable",
      "type": "function"
    }
  ],
  "bytecode": "0x60806040523480156200001157600080fd5b506040516200160a3803806200160a833981810160405281019062000037919062000291565b620000576200004b6200006f60201b60201c565b6200007760201b60201c565b62000068816200013b60201b60201c565b506200040a565b600033905090565b60008060009054906101000a900473ffffffffffffffffffffffffffffffffffffffff169050816000806101000a81548173ffffffffffffffffffffffffffffffffffffffff021916908373ffffffffffffffffffffffffffffffffffffffff1602179055508173ffffffffffffffffffffffffffffffffffffffff168173ffffffffffffffffffffffffffffffffffffffff167f8be0079c531659141344cd1fd0a4f28419497f9722a3daafe3b4186f6b6457e060405160405180910390a35050565b6200014b6200006f60201b60201c565b73ffffffffffffffffffffffffffffffffffffffff16620001716200025160201b60201c565b73ffffffffffffffffffffffffffffffffffffffff1614620001ca576040517f08c379a0000000000000000000000000000000000000000000000000000000008152600401620001c19062000389565b60405180910390fd5b600073ffffffffffffffffffffffffffffffffffffffff168173ffffffffffffffffffffffffffffffffffffffff1614156200023d576040517f08c379a0000000000000000000000000000000000000000000000000000000008152600401620002349062000367565b60405180910390fd5b6200024e816200007760201b60201c565b50565b60008060009054906101000a900473ffffffffffffffffffffffffffffffffffffffff16905090565b6000815190506200028b81620003f0565b92915050565b600060208284031215620002a457600080fd5b6000620002b4848285016200027a565b91505092915050565b6000620002cc602683620003ab565b91507f4f776e61626c653a206e6577206f776e657220697320746865207a65726f206160008301527f64647265737300000000000000000000000000000000000000000000000000006020830152604082019050919050565b600062000334602083620003ab565b91507f4f776e61626c653a2063616c6c6572206973206e6f7420746865206f776e65726000830152602082019050919050565b600060208201905081810360008301526200038281620002bd565b9050919050565b60006020820190508181036000830152620003a48162000325565b9050919050565b600082825260208201905092915050565b6000620003c982620003d0565b9050919050565b600073ffffffffffffffffffffffffffffffffffffffff82169050919050565b620003fb81620003bc565b81146200040757600080fd5b50565b6111f0806200041a6000396000f3fe6080604052600436106100865760003560e01c8063715018a611610059578063715018a6146101265780638da5cb5b1461013d57806395961f0514610168578063edcfafe614610191578063f2fde38b146101d357610086565b80632c3d15891461008b5780633307c7c2146100b45780633a38bcc8146100d0578063414e28b0146100fb575b600080fd5b34801561009757600080fd5b506100b260048036038101906100ad9190610c0b565b6101fc565b005b6100ce60048036038101906100c99190610c0b565b61029b565b005b3480156100dc57600080fd5b506100e56102dc565b6040516100f29190610d9b565b60405180910390f35b34801561010757600080fd5b506101106102e2565b60405161011d9190610d9b565b60405180910390f35b34801561013257600080fd5b5061013b6102e8565b005b34801561014957600080fd5b50610152610370565b60405161015f9190610d40565b60405180910390f35b34801561017457600080fd5b5061018f600480360381019061018a9190610b9f565b610399565b005b34801561019d57600080fd5b506101b860048036038101906101b39190610c0b565b610423565b6040516101ca96959493929190610ea1565b60405180910390f35b3480156101df57600080fd5b506101fa60048036038101906101f59190610b76565b61056f565b005b80600154811061020b57600080fd5b6002600083815260200190815260200160002060060160003373ffffffffffffffffffffffffffffffffffffffff1673ffffffffffffffffffffffffffffffffffffffff16815260200190815260200160002060009054906101000a900460ff161561027657600080fd5b600060026000848152602001908152602001600020905061029681610667565b505050565b8060015481106102aa57600080fd5b600034116102b757600080fd5b60006002600084815260200190815260200160002090506102d781610721565b505050565b60035481565b60015481565b6102f0610825565b73ffffffffffffffffffffffffffffffffffffffff1661030e610370565b73ffffffffffffffffffffffffffffffffffffffff1614610364576040517f08c379a000000000000000000000000000000000000000000000000000000000815260040161035b90610d7b565b60405180910390fd5b61036e600061082d565b565b60008060009054906101000a900473ffffffffffffffffffffffffffffffffffffffff16905090565b6103a1610825565b73ffffffffffffffffffffffffffffffffffffffff166103bf610370565b73ffffffffffffffffffffffffffffffffffffffff1614610415576040517f08c379a000000000000000000000000000000000000000000000000000000000815260040161040c90610d7b565b60405180910390fd5b61041f82826108f1565b5050565b600260205280600052604060002060009150905080600001549080600101805461044c90611073565b80601f016020809104026020016040519081016040528092919081815260200182805461047890611073565b80156104c55780601f1061049a576101008083540402835291602001916104c5565b820191906000526020600020905b8154815290600101906020018083116104a857829003601f168201915b5050505050908060020180546104da90611073565b80601f016020809104026020016040519081016040528092919081815260200182805461050690611073565b80156105535780601f1061052857610100808354040283529160200191610553565b820191906000526020600020905b81548152906001019060200180831161053657829003601f168201915b5050505050908060030154908060040154908060050154905086565b610577610825565b73ffffffffffffffffffffffffffffffffffffffff16610595610370565b73ffffffffffffffffffffffffffffffffffffffff16146105eb576040517f08c379a00000000000000000000000000000000000000000000000000000000081526004016105e290610d7b565b60405180910390fd5b600073ffffffffffffffffffffffffffffffffffffffff168173ffffffffffffffffffffffffffffffffffffffff16141561065b576040517f08c379a000000000000000000000000000000000000000000000000000000000815260040161065290610d5b565b60405180910390fd5b6106648161082d565b50565b80600401600081548092919061067c906110a5565b919050555060018160060160003373ffffffffffffffffffffffffffffffffffffffff1673ffffffffffffffffffffffffffffffffffffffff16815260200190815260200160002060006101000a81548160ff0219169083151502179055507f7d5458e61bf2bf76987ce638f841daaa06b8829aae898a0eb343f41e38aa082f816000015433836004015460405161071693929190610db6565b60405180910390a150565b3481600501546107319190610f8d565b8160050181905550348160070160003373ffffffffffffffffffffffffffffffffffffffff1673ffffffffffffffffffffffffffffffffffffffff168152602001908152602001600020546107869190610f8d565b8160070160003373ffffffffffffffffffffffffffffffffffffffff1673ffffffffffffffffffffffffffffffffffffffff16815260200190815260200160002081905550346003546107d99190610f8d565b6003819055507f8daa46fa469e04bd312abe18b38efc6deb94c058ad9ed97ae8787e2a2169a86e8160000154333460035460405161081a9493929190610ded565b60405180910390a150565b600033905090565b60008060009054906101000a900473ffffffffffffffffffffffffffffffffffffffff169050816000806101000a81548173ffffffffffffffffffffffffffffffffffffffff021916908373ffffffffffffffffffffffffffffffffffffffff1602179055508173ffffffffffffffffffffffffffffffffffffffff168173ffffffffffffffffffffffffffffffffffffffff167f8be0079c531659141344cd1fd0a4f28419497f9722a3daafe3b4186f6b6457e060405160405180910390a35050565b6108f9610825565b73ffffffffffffffffffffffffffffffffffffffff16610917610370565b73ffffffffffffffffffffffffffffffffffffffff161461096d576040517f08c379a000000000000000000000000000000000000000000000000000000000815260040161096490610d7b565b60405180910390fd5b600060026000600154815260200190815260200160002090506001548160000181905550828160010190805190602001906109a9929190610a41565b50818160020190805190602001906109c2929190610a41565b5042816003018190555060008160040181905550600081600501819055507fef312339197187abb2348f857f0015f1df9ecec77e017d052d22ed73f24a3ddd600154848442600080604051610a1c96959493929190610e32565b60405180910390a160016000815480929190610a37906110a5565b9190505550505050565b828054610a4d90611073565b90600052602060002090601f016020900481019282610a6f5760008555610ab6565b82601f10610a8857805160ff1916838001178555610ab6565b82800160010185558215610ab6579182015b82811115610ab5578251825591602001919060010190610a9a565b5b509050610ac39190610ac7565b5090565b5b80821115610ae0576000816000905550600101610ac8565b5090565b6000610af7610af284610f41565b610f10565b905082815260208101848484011115610b0f57600080fd5b610b1a848285611031565b509392505050565b600081359050610b318161118c565b92915050565b600082601f830112610b4857600080fd5b8135610b58848260208601610ae4565b91505092915050565b600081359050610b70816111a3565b92915050565b600060208284031215610b8857600080fd5b6000610b9684828501610b22565b91505092915050565b60008060408385031215610bb257600080fd5b600083013567ffffffffffffffff811115610bcc57600080fd5b610bd885828601610b37565b925050602083013567ffffffffffffffff811115610bf557600080fd5b610c0185828601610b37565b9150509250929050565b600060208284031215610c1d57600080fd5b6000610c2b84828501610b61565b91505092915050565b610c3d81610fe3565b82525050565b610c4c8161101f565b82525050565b6000610c5d82610f71565b610c678185610f7c565b9350610c77818560208601611040565b610c808161117b565b840191505092915050565b6000610c98602683610f7c565b91507f4f776e61626c653a206e6577206f776e657220697320746865207a65726f206160008301527f64647265737300000000000000000000000000000000000000000000000000006020830152604082019050919050565b6000610cfe602083610f7c565b91507f4f776e61626c653a2063616c6c6572206973206e6f7420746865206f776e65726000830152602082019050919050565b610d3a81611015565b82525050565b6000602082019050610d556000830184610c34565b92915050565b60006020820190508181036000830152610d7481610c8b565b9050919050565b60006020820190508181036000830152610d9481610cf1565b9050919050565b6000602082019050610db06000830184610d31565b92915050565b6000606082019050610dcb6000830186610d31565b610dd86020830185610c34565b610de56040830184610d31565b949350505050565b6000608082019050610e026000830187610d31565b610e0f6020830186610c34565b610e1c6040830185610d31565b610e296060830184610d31565b95945050505050565b600060c082019050610e476000830189610d31565b8181036020830152610e598188610c52565b90508181036040830152610e6d8187610c52565b9050610e7c6060830186610d31565b610e896080830185610c43565b610e9660a0830184610c43565b979650505050505050565b600060c082019050610eb66000830189610d31565b8181036020830152610ec88188610c52565b90508181036040830152610edc8187610c52565b9050610eeb6060830186610d31565b610ef86080830185610d31565b610f0560a0830184610d31565b979650505050505050565b6000604051905081810181811067ffffffffffffffff82111715610f3757610f3661114c565b5b8060405250919050565b600067ffffffffffffffff821115610f5c57610f5b61114c565b5b601f19601f8301169050602081019050919050565b600081519050919050565b600082825260208201905092915050565b6000610f9882611015565b9150610fa383611015565b9250827fffffffffffffffffffffffffffffffffffffffffffffffffffffffffffffffff03821115610fd857610fd76110ee565b5b828201905092915050565b6000610fee82610ff5565b9050919050565b600073ffffffffffffffffffffffffffffffffffffffff82169050919050565b6000819050919050565b600061102a82611015565b9050919050565b82818337600083830152505050565b60005b8381101561105e578082015181840152602081019050611043565b8381111561106d576000848401525b50505050565b6000600282049050600182168061108b57607f821691505b6020821081141561109f5761109e61111d565b5b50919050565b60006110b082611015565b91507fffffffffffffffffffffffffffffffffffffffffffffffffffffffffffffffff8214156110e3576110e26110ee565b5b600182019050919050565b7f4e487b7100000000000000000000000000000000000000000000000000000000600052601160045260246000fd5b7f4e487b7100000000000000000000000000000000000000000000000000000000600052602260045260246000fd5b7f4e487b7100000000000000000000000000000000000000000000000000000000600052604160045260246000fd5b6000601f19601f8301169050919050565b61119581610fe3565b81146111a057600080fd5b50565b6111ac81611015565b81146111b757600080fd5b5056fea2646970667358221220b87abb488e37ff514ded19a5525c80dd841358187125a12ae20f7fc6689a589d64736f6c63430008000033",
  "linkReferences": {},
  "deployedLinkReferences": {}
}