{
  "_format": "hh-sol-artifact-1",
  "contractName": "BlogFactory",
  "sourceName": "contracts/BlogFactory.sol",
  "abi": [
    {
      "anonymous": false,
      "inputs": [
        {
          "indexed": false,
          "internalType": "address",
          "name": "blogAddress",
          "type": "address"
        }
      ],
      "name": "BlogCreated",
      "type": "event"
    },
    {
      "inputs": [
        {
          "internalType": "string",
          "name": "blogsName",
          "type": "string"
        }
      ],
      "name": "createBlog",
      "outputs": [],
      "stateMutability": "nonpayable",
      "type": "function"
    },
    {
      "inputs": [
        {
          "internalType": "uint256",
          "name": "",
          "type": "uint256"
        }
      ],
      "name": "deployedBlogs",
      "outputs": [
        {
          "internalType": "address",
          "name": "",
          "type": "address"
        }
      ],
      "stateMutability": "view",
      "type": "function"
    },
    {
      "inputs": [],
      "name": "getDeployedBlogs",
      "outputs": [
        {
          "internalType": "address[]",
          "name": "",
          "type": "address[]"
        }
      ],
      "stateMutability": "view",
      "type": "function"
    }
  ],
  "bytecode": "0x608060405234801561001057600080fd5b506125d6806100206000396000f3fe60806040523480156200001157600080fd5b5060043610620000465760003560e01c8063706936d4146200004b578063cf528067146200006b578063f97110a314620000a1575b600080fd5b62000069600480360381019062000063919062000309565b620000c3565b005b6200008960048036038101906200008391906200034e565b620001a2565b60405162000098919062000461565b60405180910390f35b620000ab620001e2565b604051620000ba9190620004b2565b60405180910390f35b60003382604051620000d59062000272565b620000e29291906200047e565b604051809103906000f080158015620000ff573d6000803e3d6000fd5b5090506000819080600181540180825580915050600190039060005260206000200160009091909190916101000a81548173ffffffffffffffffffffffffffffffffffffffff021916908373ffffffffffffffffffffffffffffffffffffffff1602179055507ffbbaac635ff4f5b73ad465ca9fe80c3de7b3f4fa4d63e5fcf2124750dacd95158160405162000196919062000461565b60405180910390a15050565b60008181548110620001b357600080fd5b906000526020600020016000915054906101000a900473ffffffffffffffffffffffffffffffffffffffff1681565b606060008054806020026020016040519081016040528092919081815260200182805480156200026857602002820191906000526020600020905b8160009054906101000a900473ffffffffffffffffffffffffffffffffffffffff1673ffffffffffffffffffffffffffffffffffffffff16815260200190600101908083116200021d575b5050505050905090565b611f31806200067083390190565b60006200029762000291846200050a565b620004d6565b905082815260208101848484011115620002b057600080fd5b620002bd848285620005d0565b509392505050565b600082601f830112620002d757600080fd5b8135620002e984826020860162000280565b91505092915050565b600081359050620003038162000655565b92915050565b6000602082840312156200031c57600080fd5b600082013567ffffffffffffffff8111156200033757600080fd5b6200034584828501620002c5565b91505092915050565b6000602082840312156200036157600080fd5b60006200037184828501620002f2565b91505092915050565b600062000388838362000394565b60208301905092915050565b6200039f8162000592565b82525050565b620003b08162000592565b82525050565b6000620003c3826200054d565b620003cf818562000570565b9350620003dc836200053d565b8060005b8381101562000413578151620003f788826200037a565b9750620004048362000563565b925050600181019050620003e0565b5085935050505092915050565b60006200042d8262000558565b62000439818562000581565b93506200044b818560208601620005df565b620004568162000644565b840191505092915050565b6000602082019050620004786000830184620003a5565b92915050565b6000604082019050620004956000830185620003a5565b8181036020830152620004a9818462000420565b90509392505050565b60006020820190508181036000830152620004ce8184620003b6565b905092915050565b6000604051905081810181811067ffffffffffffffff821117156200050057620004ff62000615565b5b8060405250919050565b600067ffffffffffffffff82111562000528576200052762000615565b5b601f19601f8301169050602081019050919050565b6000819050602082019050919050565b600081519050919050565b600081519050919050565b6000602082019050919050565b600082825260208201905092915050565b600082825260208201905092915050565b60006200059f82620005a6565b9050919050565b600073ffffffffffffffffffffffffffffffffffffffff82169050919050565b6000819050919050565b82818337600083830152505050565b60005b83811015620005ff578082015181840152602081019050620005e2565b838111156200060f576000848401525b50505050565b7f4e487b7100000000000000000000000000000000000000000000000000000000600052604160045260246000fd5b6000601f19601f8301169050919050565b6200066081620005c6565b81146200066c57600080fd5b5056fe60806040523480156200001157600080fd5b5060405162001f3138038062001f318339818101604052810190620000379190620003cd565b620000576200004b6200008960201b60201c565b6200009160201b60201c565b62000068826200015560201b60201c565b80600490805190602001906200008092919062000294565b505050620006a5565b600033905090565b60008060009054906101000a900473ffffffffffffffffffffffffffffffffffffffff169050816000806101000a81548173ffffffffffffffffffffffffffffffffffffffff021916908373ffffffffffffffffffffffffffffffffffffffff1602179055508173ffffffffffffffffffffffffffffffffffffffff168173ffffffffffffffffffffffffffffffffffffffff167f8be0079c531659141344cd1fd0a4f28419497f9722a3daafe3b4186f6b6457e060405160405180910390a35050565b620001656200008960201b60201c565b73ffffffffffffffffffffffffffffffffffffffff166200018b6200026b60201b60201c565b73ffffffffffffffffffffffffffffffffffffffff1614620001e4576040517f08c379a0000000000000000000000000000000000000000000000000000000008152600401620001db90620004f3565b60405180910390fd5b600073ffffffffffffffffffffffffffffffffffffffff168173ffffffffffffffffffffffffffffffffffffffff16141562000257576040517f08c379a00000000000000000000000000000000000000000000000000000000081526004016200024e90620004d1565b60405180910390fd5b62000268816200009160201b60201c565b50565b60008060009054906101000a900473ffffffffffffffffffffffffffffffffffffffff16905090565b828054620002a290620005f7565b90600052602060002090601f016020900481019282620002c6576000855562000312565b82601f10620002e157805160ff191683800117855562000312565b8280016001018555821562000312579182015b8281111562000311578251825591602001919060010190620002f4565b5b50905062000321919062000325565b5090565b5b808211156200034057600081600090555060010162000326565b5090565b60006200035b620003558462000549565b62000515565b9050828152602081018484840111156200037457600080fd5b62000381848285620005c1565b509392505050565b6000815190506200039a816200068b565b92915050565b600082601f830112620003b257600080fd5b8151620003c484826020860162000344565b91505092915050565b60008060408385031215620003e157600080fd5b6000620003f18582860162000389565b925050602083015167ffffffffffffffff8111156200040f57600080fd5b6200041d85828601620003a0565b9150509250929050565b6000620004366026836200057c565b91507f4f776e61626c653a206e6577206f776e657220697320746865207a65726f206160008301527f64647265737300000000000000000000000000000000000000000000000000006020830152604082019050919050565b60006200049e6020836200057c565b91507f4f776e61626c653a2063616c6c6572206973206e6f7420746865206f776e65726000830152602082019050919050565b60006020820190508181036000830152620004ec8162000427565b9050919050565b600060208201905081810360008301526200050e816200048f565b9050919050565b6000604051905081810181811067ffffffffffffffff821117156200053f576200053e6200065c565b5b8060405250919050565b600067ffffffffffffffff8211156200056757620005666200065c565b5b601f19601f8301169050602081019050919050565b600082825260208201905092915050565b60006200059a82620005a1565b9050919050565b600073ffffffffffffffffffffffffffffffffffffffff82169050919050565b60005b83811015620005e1578082015181840152602081019050620005c4565b83811115620005f1576000848401525b50505050565b600060028204905060018216806200061057607f821691505b602082108114156200062757620006266200062d565b5b50919050565b7f4e487b7100000000000000000000000000000000000000000000000000000000600052602260045260246000fd5b7f4e487b7100000000000000000000000000000000000000000000000000000000600052604160045260246000fd5b62000696816200058d565b8114620006a257600080fd5b50565b61187c80620006b56000396000f3fe6080604052600436106100c25760003560e01c8063414e28b01161007f57806395961f051161005957806395961f0514610226578063ba5f95ea1461024f578063edcfafe61461028c578063f2fde38b146102cf576100c2565b8063414e28b0146101b9578063715018a6146101e45780638da5cb5b146101fb576100c2565b806312c08f4b146100c75780632c3d1589146100f25780632e1a7d4d1461011b5780633307c7c2146101445780633a38bcc8146101605780634051ddac1461018b575b600080fd5b3480156100d357600080fd5b506100dc6102f8565b6040516100e99190611332565b60405180910390f35b3480156100fe57600080fd5b50610119600480360381019061011491906110fd565b610386565b005b34801561012757600080fd5b50610142600480360381019061013d91906110fd565b610425565b005b61015e600480360381019061015991906110fd565b6104f8565b005b34801561016c57600080fd5b50610175610539565b60405161018291906113e0565b60405180910390f35b34801561019757600080fd5b506101a061053f565b6040516101b09493929190611354565b60405180910390f35b3480156101c557600080fd5b506101ce6105f0565b6040516101db91906113e0565b60405180910390f35b3480156101f057600080fd5b506101f96105f6565b005b34801561020757600080fd5b5061021061067e565b60405161021d91906112f5565b60405180910390f35b34801561023257600080fd5b5061024d60048036038101906102489190611091565b6106a7565b005b34801561025b57600080fd5b50610276600480360381019061027191906110fd565b610731565b6040516102839190611310565b60405180910390f35b34801561029857600080fd5b506102b360048036038101906102ae91906110fd565b6108bf565b6040516102c697969594939291906114e6565b60405180910390f35b3480156102db57600080fd5b506102f660048036038101906102f19190611068565b610a11565b005b60048054610305906116ff565b80601f0160208091040260200160405190810160405280929190818152602001828054610331906116ff565b801561037e5780601f106103535761010080835404028352916020019161037e565b820191906000526020600020905b81548152906001019060200180831161036157829003601f168201915b505050505081565b80600154811061039557600080fd5b6002600083815260200190815260200160002060080160003373ffffffffffffffffffffffffffffffffffffffff1673ffffffffffffffffffffffffffffffffffffffff16815260200190815260200160002060009054906101000a900460ff161561040057600080fd5b600060026000848152602001908152602001600020905061042081610b09565b505050565b61042d610bc3565b73ffffffffffffffffffffffffffffffffffffffff1661044b61067e565b73ffffffffffffffffffffffffffffffffffffffff16146104a1576040517f08c379a0000000000000000000000000000000000000000000000000000000008152600401610498906113c0565b60405180910390fd5b478111156104ae57600080fd5b3373ffffffffffffffffffffffffffffffffffffffff166108fc479081150290604051600060405180830381858888f193505050501580156104f4573d6000803e3d6000fd5b5050565b80600154811061050757600080fd5b6000341161051457600080fd5b600060026000848152602001908152602001600020905061053481610bcb565b505050565b60035481565b60606000806000600461055061067e565b600154600354838054610562906116ff565b80601f016020809104026020016040519081016040528092919081815260200182805461058e906116ff565b80156105db5780601f106105b0576101008083540402835291602001916105db565b820191906000526020600020905b8154815290600101906020018083116105be57829003601f168201915b50505050509350935093509350935090919293565b60015481565b6105fe610bc3565b73ffffffffffffffffffffffffffffffffffffffff1661061c61067e565b73ffffffffffffffffffffffffffffffffffffffff1614610672576040517f08c379a0000000000000000000000000000000000000000000000000000000008152600401610669906113c0565b60405180910390fd5b61067c6000610cef565b565b60008060009054906101000a900473ffffffffffffffffffffffffffffffffffffffff16905090565b6106af610bc3565b73ffffffffffffffffffffffffffffffffffffffff166106cd61067e565b73ffffffffffffffffffffffffffffffffffffffff1614610723576040517f08c379a000000000000000000000000000000000000000000000000000000000815260040161071a906113c0565b60405180910390fd5b61072d8282610db3565b5050565b6060600060026000848152602001908152602001600020905060008160060154905060008167ffffffffffffffff811115610795577f4e487b7100000000000000000000000000000000000000000000000000000000600052604160045260246000fd5b6040519080825280602002602001820160405280156107ce57816020015b6107bb610f03565b8152602001906001900390816107b35790505b50905060005b828110156108b3578360070160008281526020019081526020016000206040518060400160405290816000820160009054906101000a900473ffffffffffffffffffffffffffffffffffffffff1673ffffffffffffffffffffffffffffffffffffffff1673ffffffffffffffffffffffffffffffffffffffff168152602001600182015481525050828281518110610895577f4e487b7100000000000000000000000000000000000000000000000000000000600052603260045260246000fd5b602002602001018190525080806108ab90611731565b9150506107d4565b50809350505050919050565b60026020528060005260406000206000915090508060000154908060010180546108e8906116ff565b80601f0160208091040260200160405190810160405280929190818152602001828054610914906116ff565b80156109615780601f1061093657610100808354040283529160200191610961565b820191906000526020600020905b81548152906001019060200180831161094457829003601f168201915b505050505090806002018054610976906116ff565b80601f01602080910402602001604051908101604052809291908181526020018280546109a2906116ff565b80156109ef5780601f106109c4576101008083540402835291602001916109ef565b820191906000526020600020905b8154815290600101906020018083116109d257829003601f168201915b5050505050908060030154908060040154908060050154908060060154905087565b610a19610bc3565b73ffffffffffffffffffffffffffffffffffffffff16610a3761067e565b73ffffffffffffffffffffffffffffffffffffffff1614610a8d576040517f08c379a0000000000000000000000000000000000000000000000000000000008152600401610a84906113c0565b60405180910390fd5b600073ffffffffffffffffffffffffffffffffffffffff168173ffffffffffffffffffffffffffffffffffffffff161415610afd576040517f08c379a0000000000000000000000000000000000000000000000000000000008152600401610af4906113a0565b60405180910390fd5b610b0681610cef565b50565b806004016000815480929190610b1e90611731565b919050555060018160080160003373ffffffffffffffffffffffffffffffffffffffff1673ffffffffffffffffffffffffffffffffffffffff16815260200190815260200160002060006101000a81548160ff0219169083151502179055507f7d5458e61bf2bf76987ce638f841daaa06b8829aae898a0eb343f41e38aa082f8160000154338360040154604051610bb8939291906113fb565b60405180910390a150565b600033905090565b60405180604001604052803373ffffffffffffffffffffffffffffffffffffffff168152602001348152508160070160008360060154815260200190815260200160002060008201518160000160006101000a81548173ffffffffffffffffffffffffffffffffffffffff021916908373ffffffffffffffffffffffffffffffffffffffff16021790555060208201518160010155905050348160050154610c739190611619565b816005018190555034600354610c899190611619565b600381905550806006016000815480929190610ca490611731565b91905055507f8daa46fa469e04bd312abe18b38efc6deb94c058ad9ed97ae8787e2a2169a86e81600001543334600354604051610ce49493929190611432565b60405180910390a150565b60008060009054906101000a900473ffffffffffffffffffffffffffffffffffffffff169050816000806101000a81548173ffffffffffffffffffffffffffffffffffffffff021916908373ffffffffffffffffffffffffffffffffffffffff1602179055508173ffffffffffffffffffffffffffffffffffffffff168173ffffffffffffffffffffffffffffffffffffffff167f8be0079c531659141344cd1fd0a4f28419497f9722a3daafe3b4186f6b6457e060405160405180910390a35050565b610dbb610bc3565b73ffffffffffffffffffffffffffffffffffffffff16610dd961067e565b73ffffffffffffffffffffffffffffffffffffffff1614610e2f576040517f08c379a0000000000000000000000000000000000000000000000000000000008152600401610e26906113c0565b60405180910390fd5b60006002600060015481526020019081526020016000209050600154816000018190555082816001019080519060200190610e6b929190610f33565b5081816002019080519060200190610e84929190610f33565b5042816003018190555060008160040181905550600081600501819055507fef312339197187abb2348f857f0015f1df9ecec77e017d052d22ed73f24a3ddd600154848442600080604051610ede96959493929190611477565b60405180910390a160016000815480929190610ef990611731565b9190505550505050565b6040518060400160405280600073ffffffffffffffffffffffffffffffffffffffff168152602001600081525090565b828054610f3f906116ff565b90600052602060002090601f016020900481019282610f615760008555610fa8565b82601f10610f7a57805160ff1916838001178555610fa8565b82800160010185558215610fa8579182015b82811115610fa7578251825591602001919060010190610f8c565b5b509050610fb59190610fb9565b5090565b5b80821115610fd2576000816000905550600101610fba565b5090565b6000610fe9610fe484611594565b611563565b90508281526020810184848401111561100157600080fd5b61100c8482856116bd565b509392505050565b60008135905061102381611818565b92915050565b600082601f83011261103a57600080fd5b813561104a848260208601610fd6565b91505092915050565b6000813590506110628161182f565b92915050565b60006020828403121561107a57600080fd5b600061108884828501611014565b91505092915050565b600080604083850312156110a457600080fd5b600083013567ffffffffffffffff8111156110be57600080fd5b6110ca85828601611029565b925050602083013567ffffffffffffffff8111156110e757600080fd5b6110f385828601611029565b9150509250929050565b60006020828403121561110f57600080fd5b600061111d84828501611053565b91505092915050565b600061113283836112a8565b60408301905092915050565b6111478161166f565b82525050565b6111568161166f565b82525050565b6000611167826115d4565b61117181856115f7565b935061117c836115c4565b8060005b838110156111ad5781516111948882611126565b975061119f836115ea565b925050600181019050611180565b5085935050505092915050565b6111c3816116ab565b82525050565b60006111d4826115df565b6111de8185611608565b93506111ee8185602086016116cc565b6111f781611807565b840191505092915050565b600061120f602683611608565b91507f4f776e61626c653a206e6577206f776e657220697320746865207a65726f206160008301527f64647265737300000000000000000000000000000000000000000000000000006020830152604082019050919050565b6000611275602083611608565b91507f4f776e61626c653a2063616c6c6572206973206e6f7420746865206f776e65726000830152602082019050919050565b6040820160008201516112be600085018261113e565b5060208201516112d160208501826112d7565b50505050565b6112e0816116a1565b82525050565b6112ef816116a1565b82525050565b600060208201905061130a600083018461114d565b92915050565b6000602082019050818103600083015261132a818461115c565b905092915050565b6000602082019050818103600083015261134c81846111c9565b905092915050565b6000608082019050818103600083015261136e81876111c9565b905061137d602083018661114d565b61138a60408301856112e6565b61139760608301846112e6565b95945050505050565b600060208201905081810360008301526113b981611202565b9050919050565b600060208201905081810360008301526113d981611268565b9050919050565b60006020820190506113f560008301846112e6565b92915050565b600060608201905061141060008301866112e6565b61141d602083018561114d565b61142a60408301846112e6565b949350505050565b600060808201905061144760008301876112e6565b611454602083018661114d565b61146160408301856112e6565b61146e60608301846112e6565b95945050505050565b600060c08201905061148c60008301896112e6565b818103602083015261149e81886111c9565b905081810360408301526114b281876111c9565b90506114c160608301866112e6565b6114ce60808301856111ba565b6114db60a08301846111ba565b979650505050505050565b600060e0820190506114fb600083018a6112e6565b818103602083015261150d81896111c9565b9050818103604083015261152181886111c9565b905061153060608301876112e6565b61153d60808301866112e6565b61154a60a08301856112e6565b61155760c08301846112e6565b98975050505050505050565b6000604051905081810181811067ffffffffffffffff8211171561158a576115896117d8565b5b8060405250919050565b600067ffffffffffffffff8211156115af576115ae6117d8565b5b601f19601f8301169050602081019050919050565b6000819050602082019050919050565b600081519050919050565b600081519050919050565b6000602082019050919050565b600082825260208201905092915050565b600082825260208201905092915050565b6000611624826116a1565b915061162f836116a1565b9250827fffffffffffffffffffffffffffffffffffffffffffffffffffffffffffffffff038211156116645761166361177a565b5b828201905092915050565b600061167a82611681565b9050919050565b600073ffffffffffffffffffffffffffffffffffffffff82169050919050565b6000819050919050565b60006116b6826116a1565b9050919050565b82818337600083830152505050565b60005b838110156116ea5780820151818401526020810190506116cf565b838111156116f9576000848401525b50505050565b6000600282049050600182168061171757607f821691505b6020821081141561172b5761172a6117a9565b5b50919050565b600061173c826116a1565b91507fffffffffffffffffffffffffffffffffffffffffffffffffffffffffffffffff82141561176f5761176e61177a565b5b600182019050919050565b7f4e487b7100000000000000000000000000000000000000000000000000000000600052601160045260246000fd5b7f4e487b7100000000000000000000000000000000000000000000000000000000600052602260045260246000fd5b7f4e487b7100000000000000000000000000000000000000000000000000000000600052604160045260246000fd5b6000601f19601f8301169050919050565b6118218161166f565b811461182c57600080fd5b50565b611838816116a1565b811461184357600080fd5b5056fea2646970667358221220dc4ce7d67d6ac395d624774c12d3e8e01da52a21b4e2b8e874dfbaa99d964f4b64736f6c63430008000033a2646970667358221220e585f57eead7e4b4b180a8e52fee8a2150d7bdcc12d6ea2a6d75e9ebe43b318864736f6c63430008000033",
  "linkReferences": {},
  "deployedLinkReferences": {}
}