{
  "_format": "hh-sol-artifact-1",
  "contractName": "BlogFactory",
  "sourceName": "contracts/BlogFactory.sol",
  "abi": [
    {
      "anonymous": false,
      "inputs": [
        {
          "indexed": false,
          "internalType": "address",
          "name": "blogAddress",
          "type": "address"
        }
      ],
      "name": "BlogCreated",
      "type": "event"
    },
    {
      "inputs": [],
      "name": "createBlog",
      "outputs": [],
      "stateMutability": "nonpayable",
      "type": "function"
    },
    {
      "inputs": [
        {
          "internalType": "uint256",
          "name": "",
          "type": "uint256"
        }
      ],
      "name": "deployedBlogs",
      "outputs": [
        {
          "internalType": "address",
          "name": "",
          "type": "address"
        }
      ],
      "stateMutability": "view",
      "type": "function"
    },
    {
      "inputs": [],
      "name": "getDeployedBlogs",
      "outputs": [
        {
          "internalType": "address[]",
          "name": "",
          "type": "address[]"
        }
      ],
      "stateMutability": "view",
      "type": "function"
    }
  ],
  "bytecode": "0x608060405234801561001057600080fd5b50611e89806100206000396000f3fe608060405234801561001057600080fd5b50600436106100415760003560e01c806386ff64e514610046578063cf52806714610050578063f97110a314610080575b600080fd5b61004e61009e565b005b61006a60048036038101906100659190610263565b610173565b6040516100779190610320565b60405180910390f35b6100886101b2565b604051610095919061033b565b60405180910390f35b6000336040516100ad90610240565b6100b79190610320565b604051809103906000f0801580156100d3573d6000803e3d6000fd5b5090506000819080600181540180825580915050600190039060005260206000200160009091909190916101000a81548173ffffffffffffffffffffffffffffffffffffffff021916908373ffffffffffffffffffffffffffffffffffffffff1602179055507ffbbaac635ff4f5b73ad465ca9fe80c3de7b3f4fa4d63e5fcf2124750dacd9515816040516101689190610320565b60405180910390a150565b6000818154811061018357600080fd5b906000526020600020016000915054906101000a900473ffffffffffffffffffffffffffffffffffffffff1681565b6060600080548060200260200160405190810160405280929190818152602001828054801561023657602002820191906000526020600020905b8160009054906101000a900473ffffffffffffffffffffffffffffffffffffffff1673ffffffffffffffffffffffffffffffffffffffff16815260200190600101908083116101ec575b5050505050905090565b611a6a80620003ea83390190565b60008135905061025d816103d2565b92915050565b60006020828403121561027557600080fd5b60006102838482850161024e565b91505092915050565b600061029883836102a4565b60208301905092915050565b6102ad81610396565b82525050565b6102bc81610396565b82525050565b60006102cd8261036d565b6102d78185610385565b93506102e28361035d565b8060005b838110156103135781516102fa888261028c565b975061030583610378565b9250506001810190506102e6565b5085935050505092915050565b600060208201905061033560008301846102b3565b92915050565b6000602082019050818103600083015261035581846102c2565b905092915050565b6000819050602082019050919050565b600081519050919050565b6000602082019050919050565b600082825260208201905092915050565b60006103a1826103a8565b9050919050565b600073ffffffffffffffffffffffffffffffffffffffff82169050919050565b6000819050919050565b6103db816103c8565b81146103e657600080fd5b5056fe60806040523480156200001157600080fd5b5060405162001a6a38038062001a6a833981810160405281019062000037919062000291565b620000576200004b6200006f60201b60201c565b6200007760201b60201c565b62000068816200013b60201b60201c565b506200040a565b600033905090565b60008060009054906101000a900473ffffffffffffffffffffffffffffffffffffffff169050816000806101000a81548173ffffffffffffffffffffffffffffffffffffffff021916908373ffffffffffffffffffffffffffffffffffffffff1602179055508173ffffffffffffffffffffffffffffffffffffffff168173ffffffffffffffffffffffffffffffffffffffff167f8be0079c531659141344cd1fd0a4f28419497f9722a3daafe3b4186f6b6457e060405160405180910390a35050565b6200014b6200006f60201b60201c565b73ffffffffffffffffffffffffffffffffffffffff16620001716200025160201b60201c565b73ffffffffffffffffffffffffffffffffffffffff1614620001ca576040517f08c379a0000000000000000000000000000000000000000000000000000000008152600401620001c19062000389565b60405180910390fd5b600073ffffffffffffffffffffffffffffffffffffffff168173ffffffffffffffffffffffffffffffffffffffff1614156200023d576040517f08c379a0000000000000000000000000000000000000000000000000000000008152600401620002349062000367565b60405180910390fd5b6200024e816200007760201b60201c565b50565b60008060009054906101000a900473ffffffffffffffffffffffffffffffffffffffff16905090565b6000815190506200028b81620003f0565b92915050565b600060208284031215620002a457600080fd5b6000620002b4848285016200027a565b91505092915050565b6000620002cc602683620003ab565b91507f4f776e61626c653a206e6577206f776e657220697320746865207a65726f206160008301527f64647265737300000000000000000000000000000000000000000000000000006020830152604082019050919050565b600062000334602083620003ab565b91507f4f776e61626c653a2063616c6c6572206973206e6f7420746865206f776e65726000830152602082019050919050565b600060208201905081810360008301526200038281620002bd565b9050919050565b60006020820190508181036000830152620003a48162000325565b9050919050565b600082825260208201905092915050565b6000620003c982620003d0565b9050919050565b600073ffffffffffffffffffffffffffffffffffffffff82169050919050565b620003fb81620003bc565b81146200040757600080fd5b50565b611650806200041a6000396000f3fe60806040526004361061009c5760003560e01c8063715018a611610064578063715018a6146101655780638da5cb5b1461017c57806395961f05146101a7578063ba5f95ea146101d0578063edcfafe61461020d578063f2fde38b146102505761009c565b80632c3d1589146100a15780632e1a7d4d146100ca5780633307c7c2146100f35780633a38bcc81461010f578063414e28b01461013a575b600080fd5b3480156100ad57600080fd5b506100c860048036038101906100c39190610f3f565b610279565b005b3480156100d657600080fd5b506100f160048036038101906100ec9190610f3f565b610318565b005b61010d60048036038101906101089190610f3f565b6103eb565b005b34801561011b57600080fd5b5061012461042c565b60405161013191906111b4565b60405180910390f35b34801561014657600080fd5b5061014f610432565b60405161015c91906111b4565b60405180910390f35b34801561017157600080fd5b5061017a610438565b005b34801561018857600080fd5b506101916104c0565b60405161019e9190611137565b60405180910390f35b3480156101b357600080fd5b506101ce60048036038101906101c99190610ed3565b6104e9565b005b3480156101dc57600080fd5b506101f760048036038101906101f29190610f3f565b610573565b6040516102049190611152565b60405180910390f35b34801561021957600080fd5b50610234600480360381019061022f9190610f3f565b610701565b60405161024797969594939291906112ba565b60405180910390f35b34801561025c57600080fd5b5061027760048036038101906102729190610eaa565b610853565b005b80600154811061028857600080fd5b6002600083815260200190815260200160002060080160003373ffffffffffffffffffffffffffffffffffffffff1673ffffffffffffffffffffffffffffffffffffffff16815260200190815260200160002060009054906101000a900460ff16156102f357600080fd5b60006002600084815260200190815260200160002090506103138161094b565b505050565b610320610a05565b73ffffffffffffffffffffffffffffffffffffffff1661033e6104c0565b73ffffffffffffffffffffffffffffffffffffffff1614610394576040517f08c379a000000000000000000000000000000000000000000000000000000000815260040161038b90611194565b60405180910390fd5b478111156103a157600080fd5b3373ffffffffffffffffffffffffffffffffffffffff166108fc479081150290604051600060405180830381858888f193505050501580156103e7573d6000803e3d6000fd5b5050565b8060015481106103fa57600080fd5b6000341161040757600080fd5b600060026000848152602001908152602001600020905061042781610a0d565b505050565b60035481565b60015481565b610440610a05565b73ffffffffffffffffffffffffffffffffffffffff1661045e6104c0565b73ffffffffffffffffffffffffffffffffffffffff16146104b4576040517f08c379a00000000000000000000000000000000000000000000000000000000081526004016104ab90611194565b60405180910390fd5b6104be6000610b31565b565b60008060009054906101000a900473ffffffffffffffffffffffffffffffffffffffff16905090565b6104f1610a05565b73ffffffffffffffffffffffffffffffffffffffff1661050f6104c0565b73ffffffffffffffffffffffffffffffffffffffff1614610565576040517f08c379a000000000000000000000000000000000000000000000000000000000815260040161055c90611194565b60405180910390fd5b61056f8282610bf5565b5050565b6060600060026000848152602001908152602001600020905060008160060154905060008167ffffffffffffffff8111156105d7577f4e487b7100000000000000000000000000000000000000000000000000000000600052604160045260246000fd5b60405190808252806020026020018201604052801561061057816020015b6105fd610d45565b8152602001906001900390816105f55790505b50905060005b828110156106f5578360070160008281526020019081526020016000206040518060400160405290816000820160009054906101000a900473ffffffffffffffffffffffffffffffffffffffff1673ffffffffffffffffffffffffffffffffffffffff1673ffffffffffffffffffffffffffffffffffffffff1681526020016001820154815250508282815181106106d7577f4e487b7100000000000000000000000000000000000000000000000000000000600052603260045260246000fd5b602002602001018190525080806106ed90611505565b915050610616565b50809350505050919050565b600260205280600052604060002060009150905080600001549080600101805461072a906114d3565b80601f0160208091040260200160405190810160405280929190818152602001828054610756906114d3565b80156107a35780601f10610778576101008083540402835291602001916107a3565b820191906000526020600020905b81548152906001019060200180831161078657829003601f168201915b5050505050908060020180546107b8906114d3565b80601f01602080910402602001604051908101604052809291908181526020018280546107e4906114d3565b80156108315780601f1061080657610100808354040283529160200191610831565b820191906000526020600020905b81548152906001019060200180831161081457829003601f168201915b5050505050908060030154908060040154908060050154908060060154905087565b61085b610a05565b73ffffffffffffffffffffffffffffffffffffffff166108796104c0565b73ffffffffffffffffffffffffffffffffffffffff16146108cf576040517f08c379a00000000000000000000000000000000000000000000000000000000081526004016108c690611194565b60405180910390fd5b600073ffffffffffffffffffffffffffffffffffffffff168173ffffffffffffffffffffffffffffffffffffffff16141561093f576040517f08c379a000000000000000000000000000000000000000000000000000000000815260040161093690611174565b60405180910390fd5b61094881610b31565b50565b80600401600081548092919061096090611505565b919050555060018160080160003373ffffffffffffffffffffffffffffffffffffffff1673ffffffffffffffffffffffffffffffffffffffff16815260200190815260200160002060006101000a81548160ff0219169083151502179055507f7d5458e61bf2bf76987ce638f841daaa06b8829aae898a0eb343f41e38aa082f81600001543383600401546040516109fa939291906111cf565b60405180910390a150565b600033905090565b60405180604001604052803373ffffffffffffffffffffffffffffffffffffffff168152602001348152508160070160008360060154815260200190815260200160002060008201518160000160006101000a81548173ffffffffffffffffffffffffffffffffffffffff021916908373ffffffffffffffffffffffffffffffffffffffff16021790555060208201518160010155905050348160050154610ab591906113ed565b816005018190555034600354610acb91906113ed565b600381905550806006016000815480929190610ae690611505565b91905055507f8daa46fa469e04bd312abe18b38efc6deb94c058ad9ed97ae8787e2a2169a86e81600001543334600354604051610b269493929190611206565b60405180910390a150565b60008060009054906101000a900473ffffffffffffffffffffffffffffffffffffffff169050816000806101000a81548173ffffffffffffffffffffffffffffffffffffffff021916908373ffffffffffffffffffffffffffffffffffffffff1602179055508173ffffffffffffffffffffffffffffffffffffffff168173ffffffffffffffffffffffffffffffffffffffff167f8be0079c531659141344cd1fd0a4f28419497f9722a3daafe3b4186f6b6457e060405160405180910390a35050565b610bfd610a05565b73ffffffffffffffffffffffffffffffffffffffff16610c1b6104c0565b73ffffffffffffffffffffffffffffffffffffffff1614610c71576040517f08c379a0000000000000000000000000000000000000000000000000000000008152600401610c6890611194565b60405180910390fd5b60006002600060015481526020019081526020016000209050600154816000018190555082816001019080519060200190610cad929190610d75565b5081816002019080519060200190610cc6929190610d75565b5042816003018190555060008160040181905550600081600501819055507fef312339197187abb2348f857f0015f1df9ecec77e017d052d22ed73f24a3ddd600154848442600080604051610d209695949392919061124b565b60405180910390a160016000815480929190610d3b90611505565b9190505550505050565b6040518060400160405280600073ffffffffffffffffffffffffffffffffffffffff168152602001600081525090565b828054610d81906114d3565b90600052602060002090601f016020900481019282610da35760008555610dea565b82601f10610dbc57805160ff1916838001178555610dea565b82800160010185558215610dea579182015b82811115610de9578251825591602001919060010190610dce565b5b509050610df79190610dfb565b5090565b5b80821115610e14576000816000905550600101610dfc565b5090565b6000610e2b610e2684611368565b611337565b905082815260208101848484011115610e4357600080fd5b610e4e848285611491565b509392505050565b600081359050610e65816115ec565b92915050565b600082601f830112610e7c57600080fd5b8135610e8c848260208601610e18565b91505092915050565b600081359050610ea481611603565b92915050565b600060208284031215610ebc57600080fd5b6000610eca84828501610e56565b91505092915050565b60008060408385031215610ee657600080fd5b600083013567ffffffffffffffff811115610f0057600080fd5b610f0c85828601610e6b565b925050602083013567ffffffffffffffff811115610f2957600080fd5b610f3585828601610e6b565b9150509250929050565b600060208284031215610f5157600080fd5b6000610f5f84828501610e95565b91505092915050565b6000610f7483836110ea565b60408301905092915050565b610f8981611443565b82525050565b610f9881611443565b82525050565b6000610fa9826113a8565b610fb381856113cb565b9350610fbe83611398565b8060005b83811015610fef578151610fd68882610f68565b9750610fe1836113be565b925050600181019050610fc2565b5085935050505092915050565b6110058161147f565b82525050565b6000611016826113b3565b61102081856113dc565b93506110308185602086016114a0565b611039816115db565b840191505092915050565b60006110516026836113dc565b91507f4f776e61626c653a206e6577206f776e657220697320746865207a65726f206160008301527f64647265737300000000000000000000000000000000000000000000000000006020830152604082019050919050565b60006110b76020836113dc565b91507f4f776e61626c653a2063616c6c6572206973206e6f7420746865206f776e65726000830152602082019050919050565b6040820160008201516111006000850182610f80565b5060208201516111136020850182611119565b50505050565b61112281611475565b82525050565b61113181611475565b82525050565b600060208201905061114c6000830184610f8f565b92915050565b6000602082019050818103600083015261116c8184610f9e565b905092915050565b6000602082019050818103600083015261118d81611044565b9050919050565b600060208201905081810360008301526111ad816110aa565b9050919050565b60006020820190506111c96000830184611128565b92915050565b60006060820190506111e46000830186611128565b6111f16020830185610f8f565b6111fe6040830184611128565b949350505050565b600060808201905061121b6000830187611128565b6112286020830186610f8f565b6112356040830185611128565b6112426060830184611128565b95945050505050565b600060c0820190506112606000830189611128565b8181036020830152611272818861100b565b90508181036040830152611286818761100b565b90506112956060830186611128565b6112a26080830185610ffc565b6112af60a0830184610ffc565b979650505050505050565b600060e0820190506112cf600083018a611128565b81810360208301526112e1818961100b565b905081810360408301526112f5818861100b565b90506113046060830187611128565b6113116080830186611128565b61131e60a0830185611128565b61132b60c0830184611128565b98975050505050505050565b6000604051905081810181811067ffffffffffffffff8211171561135e5761135d6115ac565b5b8060405250919050565b600067ffffffffffffffff821115611383576113826115ac565b5b601f19601f8301169050602081019050919050565b6000819050602082019050919050565b600081519050919050565b600081519050919050565b6000602082019050919050565b600082825260208201905092915050565b600082825260208201905092915050565b60006113f882611475565b915061140383611475565b9250827fffffffffffffffffffffffffffffffffffffffffffffffffffffffffffffffff038211156114385761143761154e565b5b828201905092915050565b600061144e82611455565b9050919050565b600073ffffffffffffffffffffffffffffffffffffffff82169050919050565b6000819050919050565b600061148a82611475565b9050919050565b82818337600083830152505050565b60005b838110156114be5780820151818401526020810190506114a3565b838111156114cd576000848401525b50505050565b600060028204905060018216806114eb57607f821691505b602082108114156114ff576114fe61157d565b5b50919050565b600061151082611475565b91507fffffffffffffffffffffffffffffffffffffffffffffffffffffffffffffffff8214156115435761154261154e565b5b600182019050919050565b7f4e487b7100000000000000000000000000000000000000000000000000000000600052601160045260246000fd5b7f4e487b7100000000000000000000000000000000000000000000000000000000600052602260045260246000fd5b7f4e487b7100000000000000000000000000000000000000000000000000000000600052604160045260246000fd5b6000601f19601f8301169050919050565b6115f581611443565b811461160057600080fd5b50565b61160c81611475565b811461161757600080fd5b5056fea264697066735822122044929bc065184dc5ef703d6d932c389702e75374d0955fb267d9fe989d1f7d8f64736f6c63430008000033a26469706673582212203bd3e5d5bfe5734d6aebcdf2d66853c0073a5da5a1d40f4782b732be2eea5bbe64736f6c63430008000033",
  "linkReferences": {},
  "deployedLinkReferences": {}
}