{
  "_format": "hh-sol-artifact-1",
  "contractName": "BlogFactory",
  "sourceName": "contracts/BlogFactory.sol",
  "abi": [
    {
      "anonymous": false,
      "inputs": [
        {
          "indexed": false,
          "internalType": "address",
          "name": "blogAddress",
          "type": "address"
        }
      ],
      "name": "BlogCreated",
      "type": "event"
    },
    {
      "inputs": [
        {
          "internalType": "string",
          "name": "blogsName",
          "type": "string"
        }
      ],
      "name": "createBlog",
      "outputs": [],
      "stateMutability": "nonpayable",
      "type": "function"
    },
    {
      "inputs": [
        {
          "internalType": "uint256",
          "name": "",
          "type": "uint256"
        }
      ],
      "name": "deployedBlogs",
      "outputs": [
        {
          "internalType": "address",
          "name": "",
          "type": "address"
        }
      ],
      "stateMutability": "view",
      "type": "function"
    },
    {
      "inputs": [],
      "name": "getDeployedBlogs",
      "outputs": [
        {
          "internalType": "address[]",
          "name": "",
          "type": "address[]"
        }
      ],
      "stateMutability": "view",
      "type": "function"
    }
  ],
  "bytecode": "0x608060405234801561001057600080fd5b506125bf806100206000396000f3fe60806040523480156200001157600080fd5b5060043610620000465760003560e01c8063706936d4146200004b578063cf528067146200006b578063f97110a314620000a1575b600080fd5b62000069600480360381019062000063919062000309565b620000c3565b005b6200008960048036038101906200008391906200034e565b620001a2565b60405162000098919062000461565b60405180910390f35b620000ab620001e2565b604051620000ba9190620004b2565b60405180910390f35b60003382604051620000d59062000272565b620000e29291906200047e565b604051809103906000f080158015620000ff573d6000803e3d6000fd5b5090506000819080600181540180825580915050600190039060005260206000200160009091909190916101000a81548173ffffffffffffffffffffffffffffffffffffffff021916908373ffffffffffffffffffffffffffffffffffffffff1602179055507ffbbaac635ff4f5b73ad465ca9fe80c3de7b3f4fa4d63e5fcf2124750dacd95158160405162000196919062000461565b60405180910390a15050565b60008181548110620001b357600080fd5b906000526020600020016000915054906101000a900473ffffffffffffffffffffffffffffffffffffffff1681565b606060008054806020026020016040519081016040528092919081815260200182805480156200026857602002820191906000526020600020905b8160009054906101000a900473ffffffffffffffffffffffffffffffffffffffff1673ffffffffffffffffffffffffffffffffffffffff16815260200190600101908083116200021d575b5050505050905090565b611f1a806200067083390190565b60006200029762000291846200050a565b620004d6565b905082815260208101848484011115620002b057600080fd5b620002bd848285620005d0565b509392505050565b600082601f830112620002d757600080fd5b8135620002e984826020860162000280565b91505092915050565b600081359050620003038162000655565b92915050565b6000602082840312156200031c57600080fd5b600082013567ffffffffffffffff8111156200033757600080fd5b6200034584828501620002c5565b91505092915050565b6000602082840312156200036157600080fd5b60006200037184828501620002f2565b91505092915050565b600062000388838362000394565b60208301905092915050565b6200039f8162000592565b82525050565b620003b08162000592565b82525050565b6000620003c3826200054d565b620003cf818562000570565b9350620003dc836200053d565b8060005b8381101562000413578151620003f788826200037a565b9750620004048362000563565b925050600181019050620003e0565b5085935050505092915050565b60006200042d8262000558565b62000439818562000581565b93506200044b818560208601620005df565b620004568162000644565b840191505092915050565b6000602082019050620004786000830184620003a5565b92915050565b6000604082019050620004956000830185620003a5565b8181036020830152620004a9818462000420565b90509392505050565b60006020820190508181036000830152620004ce8184620003b6565b905092915050565b6000604051905081810181811067ffffffffffffffff821117156200050057620004ff62000615565b5b8060405250919050565b600067ffffffffffffffff82111562000528576200052762000615565b5b601f19601f8301169050602081019050919050565b6000819050602082019050919050565b600081519050919050565b600081519050919050565b6000602082019050919050565b600082825260208201905092915050565b600082825260208201905092915050565b60006200059f82620005a6565b9050919050565b600073ffffffffffffffffffffffffffffffffffffffff82169050919050565b6000819050919050565b82818337600083830152505050565b60005b83811015620005ff578082015181840152602081019050620005e2565b838111156200060f576000848401525b50505050565b7f4e487b7100000000000000000000000000000000000000000000000000000000600052604160045260246000fd5b6000601f19601f8301169050919050565b6200066081620005c6565b81146200066c57600080fd5b5056fe60806040523480156200001157600080fd5b5060405162001f1a38038062001f1a8339818101604052810190620000379190620003cd565b620000576200004b6200008960201b60201c565b6200009160201b60201c565b62000068826200015560201b60201c565b80600490805190602001906200008092919062000294565b505050620006a5565b600033905090565b60008060009054906101000a900473ffffffffffffffffffffffffffffffffffffffff169050816000806101000a81548173ffffffffffffffffffffffffffffffffffffffff021916908373ffffffffffffffffffffffffffffffffffffffff1602179055508173ffffffffffffffffffffffffffffffffffffffff168173ffffffffffffffffffffffffffffffffffffffff167f8be0079c531659141344cd1fd0a4f28419497f9722a3daafe3b4186f6b6457e060405160405180910390a35050565b620001656200008960201b60201c565b73ffffffffffffffffffffffffffffffffffffffff166200018b6200026b60201b60201c565b73ffffffffffffffffffffffffffffffffffffffff1614620001e4576040517f08c379a0000000000000000000000000000000000000000000000000000000008152600401620001db90620004f3565b60405180910390fd5b600073ffffffffffffffffffffffffffffffffffffffff168173ffffffffffffffffffffffffffffffffffffffff16141562000257576040517f08c379a00000000000000000000000000000000000000000000000000000000081526004016200024e90620004d1565b60405180910390fd5b62000268816200009160201b60201c565b50565b60008060009054906101000a900473ffffffffffffffffffffffffffffffffffffffff16905090565b828054620002a290620005f7565b90600052602060002090601f016020900481019282620002c6576000855562000312565b82601f10620002e157805160ff191683800117855562000312565b8280016001018555821562000312579182015b8281111562000311578251825591602001919060010190620002f4565b5b50905062000321919062000325565b5090565b5b808211156200034057600081600090555060010162000326565b5090565b60006200035b620003558462000549565b62000515565b9050828152602081018484840111156200037457600080fd5b62000381848285620005c1565b509392505050565b6000815190506200039a816200068b565b92915050565b600082601f830112620003b257600080fd5b8151620003c484826020860162000344565b91505092915050565b60008060408385031215620003e157600080fd5b6000620003f18582860162000389565b925050602083015167ffffffffffffffff8111156200040f57600080fd5b6200041d85828601620003a0565b9150509250929050565b6000620004366026836200057c565b91507f4f776e61626c653a206e6577206f776e657220697320746865207a65726f206160008301527f64647265737300000000000000000000000000000000000000000000000000006020830152604082019050919050565b60006200049e6020836200057c565b91507f4f776e61626c653a2063616c6c6572206973206e6f7420746865206f776e65726000830152602082019050919050565b60006020820190508181036000830152620004ec8162000427565b9050919050565b600060208201905081810360008301526200050e816200048f565b9050919050565b6000604051905081810181811067ffffffffffffffff821117156200053f576200053e6200065c565b5b8060405250919050565b600067ffffffffffffffff8211156200056757620005666200065c565b5b601f19601f8301169050602081019050919050565b600082825260208201905092915050565b60006200059a82620005a1565b9050919050565b600073ffffffffffffffffffffffffffffffffffffffff82169050919050565b60005b83811015620005e1578082015181840152602081019050620005c4565b83811115620005f1576000848401525b50505050565b600060028204905060018216806200061057607f821691505b602082108114156200062757620006266200062d565b5b50919050565b7f4e487b7100000000000000000000000000000000000000000000000000000000600052602260045260246000fd5b7f4e487b7100000000000000000000000000000000000000000000000000000000600052604160045260246000fd5b62000696816200058d565b8114620006a257600080fd5b50565b61186580620006b56000396000f3fe6080604052600436106100c25760003560e01c8063414e28b01161007f57806395961f051161005957806395961f0514610225578063ba5f95ea1461024e578063edcfafe61461028b578063f2fde38b146102ce576100c2565b8063414e28b0146101b8578063715018a6146101e35780638da5cb5b146101fa576100c2565b806312c08f4b146100c75780632c3d1589146100f25780632e1a7d4d1461011b5780633307c7c2146101445780633a38bcc8146101605780634051ddac1461018b575b600080fd5b3480156100d357600080fd5b506100dc6102f7565b6040516100e99190611329565b60405180910390f35b3480156100fe57600080fd5b50610119600480360381019061011491906110f4565b610385565b005b34801561012757600080fd5b50610142600480360381019061013d91906110f4565b610424565b005b61015e600480360381019061015991906110f4565b6104f7565b005b34801561016c57600080fd5b50610175610538565b60405161018291906113c9565b60405180910390f35b34801561019757600080fd5b506101a061053e565b6040516101af9392919061134b565b60405180910390f35b3480156101c457600080fd5b506101cd6105e7565b6040516101da91906113c9565b60405180910390f35b3480156101ef57600080fd5b506101f86105ed565b005b34801561020657600080fd5b5061020f610675565b60405161021c91906112ec565b60405180910390f35b34801561023157600080fd5b5061024c60048036038101906102479190611088565b61069e565b005b34801561025a57600080fd5b50610275600480360381019061027091906110f4565b610728565b6040516102829190611307565b60405180910390f35b34801561029757600080fd5b506102b260048036038101906102ad91906110f4565b6108b6565b6040516102c597969594939291906114cf565b60405180910390f35b3480156102da57600080fd5b506102f560048036038101906102f0919061105f565b610a08565b005b60048054610304906116e8565b80601f0160208091040260200160405190810160405280929190818152602001828054610330906116e8565b801561037d5780601f106103525761010080835404028352916020019161037d565b820191906000526020600020905b81548152906001019060200180831161036057829003601f168201915b505050505081565b80600154811061039457600080fd5b6002600083815260200190815260200160002060080160003373ffffffffffffffffffffffffffffffffffffffff1673ffffffffffffffffffffffffffffffffffffffff16815260200190815260200160002060009054906101000a900460ff16156103ff57600080fd5b600060026000848152602001908152602001600020905061041f81610b00565b505050565b61042c610bba565b73ffffffffffffffffffffffffffffffffffffffff1661044a610675565b73ffffffffffffffffffffffffffffffffffffffff16146104a0576040517f08c379a0000000000000000000000000000000000000000000000000000000008152600401610497906113a9565b60405180910390fd5b478111156104ad57600080fd5b3373ffffffffffffffffffffffffffffffffffffffff166108fc479081150290604051600060405180830381858888f193505050501580156104f3573d6000803e3d6000fd5b5050565b80600154811061050657600080fd5b6000341161051357600080fd5b600060026000848152602001908152602001600020905061053381610bc2565b505050565b60035481565b6060600080600461054d610675565b60015482805461055c906116e8565b80601f0160208091040260200160405190810160405280929190818152602001828054610588906116e8565b80156105d55780601f106105aa576101008083540402835291602001916105d5565b820191906000526020600020905b8154815290600101906020018083116105b857829003601f168201915b50505050509250925092509250909192565b60015481565b6105f5610bba565b73ffffffffffffffffffffffffffffffffffffffff16610613610675565b73ffffffffffffffffffffffffffffffffffffffff1614610669576040517f08c379a0000000000000000000000000000000000000000000000000000000008152600401610660906113a9565b60405180910390fd5b6106736000610ce6565b565b60008060009054906101000a900473ffffffffffffffffffffffffffffffffffffffff16905090565b6106a6610bba565b73ffffffffffffffffffffffffffffffffffffffff166106c4610675565b73ffffffffffffffffffffffffffffffffffffffff161461071a576040517f08c379a0000000000000000000000000000000000000000000000000000000008152600401610711906113a9565b60405180910390fd5b6107248282610daa565b5050565b6060600060026000848152602001908152602001600020905060008160060154905060008167ffffffffffffffff81111561078c577f4e487b7100000000000000000000000000000000000000000000000000000000600052604160045260246000fd5b6040519080825280602002602001820160405280156107c557816020015b6107b2610efa565b8152602001906001900390816107aa5790505b50905060005b828110156108aa578360070160008281526020019081526020016000206040518060400160405290816000820160009054906101000a900473ffffffffffffffffffffffffffffffffffffffff1673ffffffffffffffffffffffffffffffffffffffff1673ffffffffffffffffffffffffffffffffffffffff16815260200160018201548152505082828151811061088c577f4e487b7100000000000000000000000000000000000000000000000000000000600052603260045260246000fd5b602002602001018190525080806108a29061171a565b9150506107cb565b50809350505050919050565b60026020528060005260406000206000915090508060000154908060010180546108df906116e8565b80601f016020809104026020016040519081016040528092919081815260200182805461090b906116e8565b80156109585780601f1061092d57610100808354040283529160200191610958565b820191906000526020600020905b81548152906001019060200180831161093b57829003601f168201915b50505050509080600201805461096d906116e8565b80601f0160208091040260200160405190810160405280929190818152602001828054610999906116e8565b80156109e65780601f106109bb576101008083540402835291602001916109e6565b820191906000526020600020905b8154815290600101906020018083116109c957829003601f168201915b5050505050908060030154908060040154908060050154908060060154905087565b610a10610bba565b73ffffffffffffffffffffffffffffffffffffffff16610a2e610675565b73ffffffffffffffffffffffffffffffffffffffff1614610a84576040517f08c379a0000000000000000000000000000000000000000000000000000000008152600401610a7b906113a9565b60405180910390fd5b600073ffffffffffffffffffffffffffffffffffffffff168173ffffffffffffffffffffffffffffffffffffffff161415610af4576040517f08c379a0000000000000000000000000000000000000000000000000000000008152600401610aeb90611389565b60405180910390fd5b610afd81610ce6565b50565b806004016000815480929190610b159061171a565b919050555060018160080160003373ffffffffffffffffffffffffffffffffffffffff1673ffffffffffffffffffffffffffffffffffffffff16815260200190815260200160002060006101000a81548160ff0219169083151502179055507f7d5458e61bf2bf76987ce638f841daaa06b8829aae898a0eb343f41e38aa082f8160000154338360040154604051610baf939291906113e4565b60405180910390a150565b600033905090565b60405180604001604052803373ffffffffffffffffffffffffffffffffffffffff168152602001348152508160070160008360060154815260200190815260200160002060008201518160000160006101000a81548173ffffffffffffffffffffffffffffffffffffffff021916908373ffffffffffffffffffffffffffffffffffffffff16021790555060208201518160010155905050348160050154610c6a9190611602565b816005018190555034600354610c809190611602565b600381905550806006016000815480929190610c9b9061171a565b91905055507f8daa46fa469e04bd312abe18b38efc6deb94c058ad9ed97ae8787e2a2169a86e81600001543334600354604051610cdb949392919061141b565b60405180910390a150565b60008060009054906101000a900473ffffffffffffffffffffffffffffffffffffffff169050816000806101000a81548173ffffffffffffffffffffffffffffffffffffffff021916908373ffffffffffffffffffffffffffffffffffffffff1602179055508173ffffffffffffffffffffffffffffffffffffffff168173ffffffffffffffffffffffffffffffffffffffff167f8be0079c531659141344cd1fd0a4f28419497f9722a3daafe3b4186f6b6457e060405160405180910390a35050565b610db2610bba565b73ffffffffffffffffffffffffffffffffffffffff16610dd0610675565b73ffffffffffffffffffffffffffffffffffffffff1614610e26576040517f08c379a0000000000000000000000000000000000000000000000000000000008152600401610e1d906113a9565b60405180910390fd5b60006002600060015481526020019081526020016000209050600154816000018190555082816001019080519060200190610e62929190610f2a565b5081816002019080519060200190610e7b929190610f2a565b5042816003018190555060008160040181905550600081600501819055507fef312339197187abb2348f857f0015f1df9ecec77e017d052d22ed73f24a3ddd600154848442600080604051610ed596959493929190611460565b60405180910390a160016000815480929190610ef09061171a565b9190505550505050565b6040518060400160405280600073ffffffffffffffffffffffffffffffffffffffff168152602001600081525090565b828054610f36906116e8565b90600052602060002090601f016020900481019282610f585760008555610f9f565b82601f10610f7157805160ff1916838001178555610f9f565b82800160010185558215610f9f579182015b82811115610f9e578251825591602001919060010190610f83565b5b509050610fac9190610fb0565b5090565b5b80821115610fc9576000816000905550600101610fb1565b5090565b6000610fe0610fdb8461157d565b61154c565b905082815260208101848484011115610ff857600080fd5b6110038482856116a6565b509392505050565b60008135905061101a81611801565b92915050565b600082601f83011261103157600080fd5b8135611041848260208601610fcd565b91505092915050565b60008135905061105981611818565b92915050565b60006020828403121561107157600080fd5b600061107f8482850161100b565b91505092915050565b6000806040838503121561109b57600080fd5b600083013567ffffffffffffffff8111156110b557600080fd5b6110c185828601611020565b925050602083013567ffffffffffffffff8111156110de57600080fd5b6110ea85828601611020565b9150509250929050565b60006020828403121561110657600080fd5b60006111148482850161104a565b91505092915050565b6000611129838361129f565b60408301905092915050565b61113e81611658565b82525050565b61114d81611658565b82525050565b600061115e826115bd565b61116881856115e0565b9350611173836115ad565b8060005b838110156111a457815161118b888261111d565b9750611196836115d3565b925050600181019050611177565b5085935050505092915050565b6111ba81611694565b82525050565b60006111cb826115c8565b6111d581856115f1565b93506111e58185602086016116b5565b6111ee816117f0565b840191505092915050565b60006112066026836115f1565b91507f4f776e61626c653a206e6577206f776e657220697320746865207a65726f206160008301527f64647265737300000000000000000000000000000000000000000000000000006020830152604082019050919050565b600061126c6020836115f1565b91507f4f776e61626c653a2063616c6c6572206973206e6f7420746865206f776e65726000830152602082019050919050565b6040820160008201516112b56000850182611135565b5060208201516112c860208501826112ce565b50505050565b6112d78161168a565b82525050565b6112e68161168a565b82525050565b60006020820190506113016000830184611144565b92915050565b600060208201905081810360008301526113218184611153565b905092915050565b6000602082019050818103600083015261134381846111c0565b905092915050565b6000606082019050818103600083015261136581866111c0565b90506113746020830185611144565b61138160408301846112dd565b949350505050565b600060208201905081810360008301526113a2816111f9565b9050919050565b600060208201905081810360008301526113c28161125f565b9050919050565b60006020820190506113de60008301846112dd565b92915050565b60006060820190506113f960008301866112dd565b6114066020830185611144565b61141360408301846112dd565b949350505050565b600060808201905061143060008301876112dd565b61143d6020830186611144565b61144a60408301856112dd565b61145760608301846112dd565b95945050505050565b600060c08201905061147560008301896112dd565b818103602083015261148781886111c0565b9050818103604083015261149b81876111c0565b90506114aa60608301866112dd565b6114b760808301856111b1565b6114c460a08301846111b1565b979650505050505050565b600060e0820190506114e4600083018a6112dd565b81810360208301526114f681896111c0565b9050818103604083015261150a81886111c0565b905061151960608301876112dd565b61152660808301866112dd565b61153360a08301856112dd565b61154060c08301846112dd565b98975050505050505050565b6000604051905081810181811067ffffffffffffffff82111715611573576115726117c1565b5b8060405250919050565b600067ffffffffffffffff821115611598576115976117c1565b5b601f19601f8301169050602081019050919050565b6000819050602082019050919050565b600081519050919050565b600081519050919050565b6000602082019050919050565b600082825260208201905092915050565b600082825260208201905092915050565b600061160d8261168a565b91506116188361168a565b9250827fffffffffffffffffffffffffffffffffffffffffffffffffffffffffffffffff0382111561164d5761164c611763565b5b828201905092915050565b60006116638261166a565b9050919050565b600073ffffffffffffffffffffffffffffffffffffffff82169050919050565b6000819050919050565b600061169f8261168a565b9050919050565b82818337600083830152505050565b60005b838110156116d35780820151818401526020810190506116b8565b838111156116e2576000848401525b50505050565b6000600282049050600182168061170057607f821691505b6020821081141561171457611713611792565b5b50919050565b60006117258261168a565b91507fffffffffffffffffffffffffffffffffffffffffffffffffffffffffffffffff82141561175857611757611763565b5b600182019050919050565b7f4e487b7100000000000000000000000000000000000000000000000000000000600052601160045260246000fd5b7f4e487b7100000000000000000000000000000000000000000000000000000000600052602260045260246000fd5b7f4e487b7100000000000000000000000000000000000000000000000000000000600052604160045260246000fd5b6000601f19601f8301169050919050565b61180a81611658565b811461181557600080fd5b50565b6118218161168a565b811461182c57600080fd5b5056fea264697066735822122015a435b2053c8ec07156b2aec72badd11b5529a51e6ad55a267d0e415e67640e64736f6c63430008000033a264697066735822122001ae5144fdf33bcd7f526769c5c89f2edbc6068b6015764119ba63ece6b0ce4964736f6c63430008000033",
  "linkReferences": {},
  "deployedLinkReferences": {}
}